{
    "abi": [
        {
            "type": "constructor",
            "inputs": [],
            "stateMutability": "nonpayable"
        },
        {
            "type": "function",
            "name": "UPGRADE_INTERFACE_VERSION",
            "inputs": [],
            "outputs": [
                {
                    "name": "",
                    "type": "string",
                    "internalType": "string"
                }
            ],
            "stateMutability": "view"
        },
        {
            "type": "function",
            "name": "availableForUnwindSwap",
            "inputs": [
                {
                    "name": "id",
                    "type": "bytes32",
                    "internalType": "MarketId"
                }
            ],
            "outputs": [
                {
                    "name": "referenceAsset",
                    "type": "uint256",
                    "internalType": "uint256"
                },
                {
                    "name": "swapToken",
                    "type": "uint256",
                    "internalType": "uint256"
                }
            ],
            "stateMutability": "view"
        },
        {
            "type": "function",
            "name": "baseRedemptionFee",
            "inputs": [
                {
                    "name": "id",
                    "type": "bytes32",
                    "internalType": "MarketId"
                }
            ],
            "outputs": [
                {
                    "name": "fees",
                    "type": "uint256",
                    "internalType": "uint256"
                }
            ],
            "stateMutability": "view"
        },
        {
            "type": "function",
            "name": "createNewMarket",
            "inputs": [
                {
                    "name": "referenceAsset",
                    "type": "address",
                    "internalType": "address"
                },
                {
                    "name": "collateralAsset",
                    "type": "address",
                    "internalType": "address"
                },
                {
                    "name": "expiryTimestamp",
                    "type": "uint256",
                    "internalType": "uint256"
                },
                {
                    "name": "exchangeRateProvider",
                    "type": "address",
                    "internalType": "address"
                }
            ],
            "outputs": [],
            "stateMutability": "nonpayable"
        },
        {
            "type": "function",
            "name": "deposit",
            "inputs": [
                {
                    "name": "id",
                    "type": "bytes32",
                    "internalType": "MarketId"
                },
                {
                    "name": "amount",
                    "type": "uint256",
                    "internalType": "uint256"
                },
                {
                    "name": "receiver",
                    "type": "address",
                    "internalType": "address"
                }
            ],
            "outputs": [
                {
                    "name": "received",
                    "type": "uint256",
                    "internalType": "uint256"
                }
            ],
            "stateMutability": "nonpayable"
        },
        {
            "type": "function",
            "name": "exchangeRate",
            "inputs": [
                {
                    "name": "id",
                    "type": "bytes32",
                    "internalType": "MarketId"
                }
            ],
            "outputs": [
                {
                    "name": "rates",
                    "type": "uint256",
                    "internalType": "uint256"
                }
            ],
            "stateMutability": "view"
        },
        {
            "type": "function",
            "name": "exercise",
            "inputs": [
                {
                    "name": "marketId",
                    "type": "bytes32",
                    "internalType": "MarketId"
                },
                {
                    "name": "sharesAmount",
                    "type": "uint256",
                    "internalType": "uint256"
                },
                {
                    "name": "compensation",
                    "type": "uint256",
                    "internalType": "uint256"
                },
                {
                    "name": "receiver",
                    "type": "address",
                    "internalType": "address"
                },
                {
                    "name": "minAssetsOut",
                    "type": "uint256",
                    "internalType": "uint256"
                },
                {
                    "name": "maxOtherAssetSpent",
                    "type": "uint256",
                    "internalType": "uint256"
                }
            ],
            "outputs": [
                {
                    "name": "assets",
                    "type": "uint256",
                    "internalType": "uint256"
                },
                {
                    "name": "otherAssetSpent",
                    "type": "uint256",
                    "internalType": "uint256"
                },
                {
                    "name": "fee",
                    "type": "uint256",
                    "internalType": "uint256"
                }
            ],
            "stateMutability": "nonpayable"
        },
        {
            "type": "function",
            "name": "expiry",
            "inputs": [
                {
                    "name": "id",
                    "type": "bytes32",
                    "internalType": "MarketId"
                }
            ],
            "outputs": [
                {
                    "name": "_expiry",
                    "type": "uint256",
                    "internalType": "uint256"
                }
            ],
            "stateMutability": "view"
        },
        {
            "type": "function",
            "name": "extsload",
            "inputs": [
                {
                    "name": "slot",
                    "type": "bytes32",
                    "internalType": "bytes32"
                }
            ],
            "outputs": [
                {
                    "name": "",
                    "type": "bytes32",
                    "internalType": "bytes32"
                }
            ],
            "stateMutability": "view"
        },
        {
            "type": "function",
            "name": "extsload",
            "inputs": [
                {
                    "name": "startSlot",
                    "type": "bytes32",
                    "internalType": "bytes32"
                },
                {
                    "name": "nSlots",
                    "type": "uint256",
                    "internalType": "uint256"
                }
            ],
            "outputs": [
                {
                    "name": "",
                    "type": "bytes32[]",
                    "internalType": "bytes32[]"
                }
            ],
            "stateMutability": "view"
        },
        {
            "type": "function",
            "name": "extsload",
            "inputs": [
                {
                    "name": "slots",
                    "type": "bytes32[]",
                    "internalType": "bytes32[]"
                }
            ],
            "outputs": [
                {
                    "name": "",
                    "type": "bytes32[]",
                    "internalType": "bytes32[]"
                }
            ],
            "stateMutability": "view"
        },
        {
            "type": "function",
            "name": "factory",
            "inputs": [],
            "outputs": [
                {
                    "name": "",
                    "type": "address",
                    "internalType": "address"
                }
            ],
            "stateMutability": "view"
        },
        {
            "type": "function",
            "name": "getId",
            "inputs": [
                {
                    "name": "referenceAsset",
                    "type": "address",
                    "internalType": "address"
                },
                {
                    "name": "collateralAsset",
                    "type": "address",
                    "internalType": "address"
                },
                {
                    "name": "_expiry",
                    "type": "uint256",
                    "internalType": "uint256"
                },
                {
                    "name": "exchangeRateProvider",
                    "type": "address",
                    "internalType": "address"
                }
            ],
            "outputs": [
                {
                    "name": "",
                    "type": "bytes32",
                    "internalType": "MarketId"
                }
            ],
            "stateMutability": "pure"
        },
        {
            "type": "function",
            "name": "getTreasuryAddress",
            "inputs": [],
            "outputs": [
                {
                    "name": "",
                    "type": "address",
                    "internalType": "address"
                }
            ],
            "stateMutability": "view"
        },
        {
            "type": "function",
            "name": "initialize",
            "inputs": [
                {
                    "name": "_swapSharesFactory",
                    "type": "address",
                    "internalType": "address"
                },
                {
                    "name": "_config",
                    "type": "address",
                    "internalType": "address"
                }
            ],
            "outputs": [],
            "stateMutability": "nonpayable"
        },
        {
            "type": "function",
            "name": "market",
            "inputs": [
                {
                    "name": "id",
                    "type": "bytes32",
                    "internalType": "MarketId"
                }
            ],
            "outputs": [
                {
                    "name": "_market",
                    "type": "tuple",
                    "internalType": "struct Market",
                    "components": [
                        {
                            "name": "referenceAsset",
                            "type": "address",
                            "internalType": "address"
                        },
                        {
                            "name": "collateralAsset",
                            "type": "address",
                            "internalType": "address"
                        },
                        {
                            "name": "expiryTimestamp",
                            "type": "uint256",
                            "internalType": "uint256"
                        },
                        {
                            "name": "exchangeRateProvider",
                            "type": "address",
                            "internalType": "address"
                        }
                    ]
                }
            ],
            "stateMutability": "view"
        },
        {
            "type": "function",
            "name": "marketDetails",
            "inputs": [
                {
                    "name": "id",
                    "type": "bytes32",
                    "internalType": "MarketId"
                }
            ],
            "outputs": [
                {
                    "name": "referenceAsset",
                    "type": "address",
                    "internalType": "address"
                },
                {
                    "name": "collateralAsset",
                    "type": "address",
                    "internalType": "address"
                },
                {
                    "name": "expiryTimestamp",
                    "type": "uint256",
                    "internalType": "uint256"
                },
                {
                    "name": "exchangeRateProvider",
                    "type": "address",
                    "internalType": "address"
                }
            ],
            "stateMutability": "view"
        },
        {
            "type": "function",
            "name": "maxDeposit",
            "inputs": [
                {
                    "name": "",
                    "type": "bytes32",
                    "internalType": "MarketId"
                },
                {
                    "name": "",
                    "type": "address",
                    "internalType": "address"
                }
            ],
            "outputs": [
                {
                    "name": "amount",
                    "type": "uint256",
                    "internalType": "uint256"
                }
            ],
            "stateMutability": "pure"
        },
        {
            "type": "function",
            "name": "maxExercise",
            "inputs": [
                {
                    "name": "marketId",
                    "type": "bytes32",
                    "internalType": "MarketId"
                },
                {
                    "name": "owner",
                    "type": "address",
                    "internalType": "address"
                }
            ],
            "outputs": [
                {
                    "name": "maxShares",
                    "type": "uint256",
                    "internalType": "uint256"
                }
            ],
            "stateMutability": "view"
        },
        {
            "type": "function",
            "name": "maxMint",
            "inputs": [
                {
                    "name": "",
                    "type": "bytes32",
                    "internalType": "MarketId"
                },
                {
                    "name": "",
                    "type": "address",
                    "internalType": "address"
                }
            ],
            "outputs": [
                {
                    "name": "amount",
                    "type": "uint256",
                    "internalType": "uint256"
                }
            ],
            "stateMutability": "pure"
        },
        {
            "type": "function",
            "name": "maxRedeem",
            "inputs": [
                {
                    "name": "marketId",
                    "type": "bytes32",
                    "internalType": "MarketId"
                },
                {
                    "name": "owner",
                    "type": "address",
                    "internalType": "address"
                }
            ],
            "outputs": [
                {
                    "name": "maxShares",
                    "type": "uint256",
                    "internalType": "uint256"
                }
            ],
            "stateMutability": "view"
        },
        {
            "type": "function",
            "name": "maxSwap",
            "inputs": [
                {
                    "name": "marketId",
                    "type": "bytes32",
                    "internalType": "MarketId"
                },
                {
                    "name": "owner",
                    "type": "address",
                    "internalType": "address"
                }
            ],
            "outputs": [
                {
                    "name": "assets",
                    "type": "uint256",
                    "internalType": "uint256"
                }
            ],
            "stateMutability": "view"
        },
        {
            "type": "function",
            "name": "maxUnwindDeposit",
            "inputs": [
                {
                    "name": "id",
                    "type": "bytes32",
                    "internalType": "MarketId"
                },
                {
                    "name": "owner",
                    "type": "address",
                    "internalType": "address"
                }
            ],
            "outputs": [
                {
                    "name": "collateralAssetAmountOut",
                    "type": "uint256",
                    "internalType": "uint256"
                }
            ],
            "stateMutability": "view"
        },
        {
            "type": "function",
            "name": "maxUnwindExercise",
            "inputs": [
                {
                    "name": "poolId",
                    "type": "bytes32",
                    "internalType": "MarketId"
                },
                {
                    "name": "receiver",
                    "type": "address",
                    "internalType": "address"
                }
            ],
            "outputs": [
                {
                    "name": "maxShares",
                    "type": "uint256",
                    "internalType": "uint256"
                }
            ],
            "stateMutability": "view"
        },
        {
            "type": "function",
            "name": "maxUnwindMint",
            "inputs": [
                {
                    "name": "id",
                    "type": "bytes32",
                    "internalType": "MarketId"
                },
                {
                    "name": "owner",
                    "type": "address",
                    "internalType": "address"
                }
            ],
            "outputs": [
                {
                    "name": "swapTokenAndPrincipalTokenIn",
                    "type": "uint256",
                    "internalType": "uint256"
                }
            ],
            "stateMutability": "view"
        },
        {
            "type": "function",
            "name": "maxUnwindSwap",
            "inputs": [
                {
                    "name": "id",
                    "type": "bytes32",
                    "internalType": "MarketId"
                },
                {
                    "name": "receiver",
                    "type": "address",
                    "internalType": "address"
                }
            ],
            "outputs": [
                {
                    "name": "amount",
                    "type": "uint256",
                    "internalType": "uint256"
                }
            ],
            "stateMutability": "view"
        },
        {
            "type": "function",
            "name": "maxWithdraw",
            "inputs": [
                {
                    "name": "marketId",
                    "type": "bytes32",
                    "internalType": "MarketId"
                },
                {
                    "name": "owner",
                    "type": "address",
                    "internalType": "address"
                }
            ],
            "outputs": [
                {
                    "name": "assets",
                    "type": "uint256",
                    "internalType": "uint256"
                }
            ],
            "stateMutability": "view"
        },
        {
            "type": "function",
            "name": "mint",
            "inputs": [
                {
                    "name": "id",
                    "type": "bytes32",
                    "internalType": "MarketId"
                },
                {
                    "name": "swapAndPricipalTokenAmountOut",
                    "type": "uint256",
                    "internalType": "uint256"
                },
                {
                    "name": "receiver",
                    "type": "address",
                    "internalType": "address"
                }
            ],
            "outputs": [
                {
                    "name": "collateralAmountIn",
                    "type": "uint256",
                    "internalType": "uint256"
                },
                {
                    "name": "_exchangeRate",
                    "type": "uint256",
                    "internalType": "uint256"
                }
            ],
            "stateMutability": "nonpayable"
        },
        {
            "type": "function",
            "name": "owner",
            "inputs": [],
            "outputs": [
                {
                    "name": "",
                    "type": "address",
                    "internalType": "address"
                }
            ],
            "stateMutability": "view"
        },
        {
            "type": "function",
            "name": "pausedStates",
            "inputs": [
                {
                    "name": "marketId",
                    "type": "bytes32",
                    "internalType": "MarketId"
                }
            ],
            "outputs": [
                {
                    "name": "depositPaused",
                    "type": "bool",
                    "internalType": "bool"
                },
                {
                    "name": "unwindSwapPaused",
                    "type": "bool",
                    "internalType": "bool"
                },
                {
                    "name": "swapPaused",
                    "type": "bool",
                    "internalType": "bool"
                },
                {
                    "name": "withdrawalPaused",
                    "type": "bool",
                    "internalType": "bool"
                },
                {
                    "name": "unwindDepositAndMintPaused",
                    "type": "bool",
                    "internalType": "bool"
                }
            ],
            "stateMutability": "view"
        },
        {
            "type": "function",
            "name": "previewDeposit",
            "inputs": [
                {
                    "name": "id",
                    "type": "bytes32",
                    "internalType": "MarketId"
                },
                {
                    "name": "amount",
                    "type": "uint256",
                    "internalType": "uint256"
                }
            ],
            "outputs": [
                {
                    "name": "received",
                    "type": "uint256",
                    "internalType": "uint256"
                }
            ],
            "stateMutability": "view"
        },
        {
            "type": "function",
            "name": "previewExercise",
            "inputs": [
                {
                    "name": "marketId",
                    "type": "bytes32",
                    "internalType": "MarketId"
                },
                {
                    "name": "sharesAmount",
                    "type": "uint256",
                    "internalType": "uint256"
                },
                {
                    "name": "compensation",
                    "type": "uint256",
                    "internalType": "uint256"
                }
            ],
            "outputs": [
                {
                    "name": "assets",
                    "type": "uint256",
                    "internalType": "uint256"
                },
                {
                    "name": "otherAssetSpent",
                    "type": "uint256",
                    "internalType": "uint256"
                },
                {
                    "name": "fee",
                    "type": "uint256",
                    "internalType": "uint256"
                }
            ],
            "stateMutability": "view"
        },
        {
            "type": "function",
            "name": "previewMint",
            "inputs": [
                {
                    "name": "id",
                    "type": "bytes32",
                    "internalType": "MarketId"
                },
                {
                    "name": "swapAndPricipalTokenAmountOut",
                    "type": "uint256",
                    "internalType": "uint256"
                }
            ],
            "outputs": [
                {
                    "name": "collateralAmountIn",
                    "type": "uint256",
                    "internalType": "uint256"
                },
                {
                    "name": "_exchangeRate",
                    "type": "uint256",
                    "internalType": "uint256"
                }
            ],
            "stateMutability": "view"
        },
        {
            "type": "function",
            "name": "previewRedeem",
            "inputs": [
                {
                    "name": "id",
                    "type": "bytes32",
                    "internalType": "MarketId"
                },
                {
                    "name": "amount",
                    "type": "uint256",
                    "internalType": "uint256"
                }
            ],
            "outputs": [
                {
                    "name": "accruedReferenceAsset",
                    "type": "uint256",
                    "internalType": "uint256"
                },
                {
                    "name": "accruedCollateralAsset",
                    "type": "uint256",
                    "internalType": "uint256"
                }
            ],
            "stateMutability": "view"
        },
        {
            "type": "function",
            "name": "previewSwap",
            "inputs": [
                {
                    "name": "id",
                    "type": "bytes32",
                    "internalType": "MarketId"
                },
                {
                    "name": "amount",
                    "type": "uint256",
                    "internalType": "uint256"
                }
            ],
            "outputs": [
                {
                    "name": "received",
                    "type": "uint256",
                    "internalType": "uint256"
                },
                {
                    "name": "_exchangeRate",
                    "type": "uint256",
                    "internalType": "uint256"
                },
                {
                    "name": "fee",
                    "type": "uint256",
                    "internalType": "uint256"
                },
                {
                    "name": "cstUsed",
                    "type": "uint256",
                    "internalType": "uint256"
                }
            ],
            "stateMutability": "view"
        },
        {
            "type": "function",
            "name": "previewUnwindDeposit",
            "inputs": [
                {
                    "name": "id",
                    "type": "bytes32",
                    "internalType": "MarketId"
                },
                {
                    "name": "collateralAssetAmountOut",
                    "type": "uint256",
                    "internalType": "uint256"
                }
            ],
            "outputs": [
                {
                    "name": "swapTokenAndPrincipalTokenIn",
                    "type": "uint256",
                    "internalType": "uint256"
                }
            ],
            "stateMutability": "view"
        },
        {
            "type": "function",
            "name": "previewUnwindExercise",
            "inputs": [
                {
                    "name": "poolId",
                    "type": "bytes32",
                    "internalType": "MarketId"
                },
                {
                    "name": "sharesAmount",
                    "type": "uint256",
                    "internalType": "uint256"
                }
            ],
            "outputs": [
                {
                    "name": "assetIn",
                    "type": "uint256",
                    "internalType": "uint256"
                },
                {
                    "name": "compensationOut",
                    "type": "uint256",
                    "internalType": "uint256"
                }
            ],
            "stateMutability": "view"
        },
        {
            "type": "function",
            "name": "previewUnwindMint",
            "inputs": [
                {
                    "name": "id",
                    "type": "bytes32",
                    "internalType": "MarketId"
                },
                {
                    "name": "cptAndCstAmountIn",
                    "type": "uint256",
                    "internalType": "uint256"
                }
            ],
            "outputs": [
                {
                    "name": "collateralAsset",
                    "type": "uint256",
                    "internalType": "uint256"
                }
            ],
            "stateMutability": "view"
        },
        {
            "type": "function",
            "name": "previewUnwindSwap",
            "inputs": [
                {
                    "name": "id",
                    "type": "bytes32",
                    "internalType": "MarketId"
                },
                {
                    "name": "amount",
                    "type": "uint256",
                    "internalType": "uint256"
                }
            ],
            "outputs": [
                {
                    "name": "receivedRef",
                    "type": "uint256",
                    "internalType": "uint256"
                },
                {
                    "name": "receivedCst",
                    "type": "uint256",
                    "internalType": "uint256"
                },
                {
                    "name": "feePercentage",
                    "type": "uint256",
                    "internalType": "uint256"
                },
                {
                    "name": "fee",
                    "type": "uint256",
                    "internalType": "uint256"
                },
                {
                    "name": "exchangeRates",
                    "type": "uint256",
                    "internalType": "uint256"
                }
            ],
            "stateMutability": "view"
        },
        {
            "type": "function",
            "name": "previewWithdraw",
            "inputs": [
                {
                    "name": "id",
                    "type": "bytes32",
                    "internalType": "MarketId"
                },
                {
                    "name": "collateralAssetOut",
                    "type": "uint256",
                    "internalType": "uint256"
                },
                {
                    "name": "referenceAssetOut",
                    "type": "uint256",
                    "internalType": "uint256"
                }
            ],
            "outputs": [
                {
                    "name": "sharesIn",
                    "type": "uint256",
                    "internalType": "uint256"
                },
                {
                    "name": "actualReferenceAssetOut",
                    "type": "uint256",
                    "internalType": "uint256"
                }
            ],
            "stateMutability": "view"
        },
        {
            "type": "function",
            "name": "proxiableUUID",
            "inputs": [],
            "outputs": [
                {
                    "name": "",
                    "type": "bytes32",
                    "internalType": "bytes32"
                }
            ],
            "stateMutability": "view"
        },
        {
            "type": "function",
            "name": "redeem",
            "inputs": [
                {
                    "name": "id",
                    "type": "bytes32",
                    "internalType": "MarketId"
                },
                {
                    "name": "amount",
                    "type": "uint256",
                    "internalType": "uint256"
                },
                {
                    "name": "owner",
                    "type": "address",
                    "internalType": "address"
                },
                {
                    "name": "receiver",
                    "type": "address",
                    "internalType": "address"
                }
            ],
            "outputs": [
                {
                    "name": "accruedReferenceAsset",
                    "type": "uint256",
                    "internalType": "uint256"
                },
                {
                    "name": "accruedCollateralAsset",
                    "type": "uint256",
                    "internalType": "uint256"
                }
            ],
            "stateMutability": "nonpayable"
        },
        {
            "type": "function",
            "name": "renounceOwnership",
            "inputs": [],
            "outputs": [],
            "stateMutability": "nonpayable"
        },
        {
            "type": "function",
            "name": "setPausedState",
            "inputs": [
                {
                    "name": "marketId",
                    "type": "bytes32",
                    "internalType": "MarketId"
                },
                {
                    "name": "operationType",
                    "type": "uint8",
                    "internalType": "enum IPool.OperationType"
                },
                {
                    "name": "isPaused",
                    "type": "bool",
                    "internalType": "bool"
                }
            ],
            "outputs": [],
            "stateMutability": "nonpayable"
        },
        {
            "type": "function",
            "name": "shares",
            "inputs": [
                {
                    "name": "id",
                    "type": "bytes32",
                    "internalType": "MarketId"
                }
            ],
            "outputs": [
                {
                    "name": "principalToken",
                    "type": "address",
                    "internalType": "address"
                },
                {
                    "name": "swapToken",
                    "type": "address",
                    "internalType": "address"
                }
            ],
            "stateMutability": "view"
        },
        {
            "type": "function",
            "name": "swap",
            "inputs": [
                {
                    "name": "marketId",
                    "type": "bytes32",
                    "internalType": "MarketId"
                },
                {
                    "name": "assets",
                    "type": "uint256",
                    "internalType": "uint256"
                },
                {
                    "name": "receiver",
                    "type": "address",
                    "internalType": "address"
                }
            ],
            "outputs": [
                {
                    "name": "sharesOut",
                    "type": "uint256",
                    "internalType": "uint256"
                },
                {
                    "name": "compensation",
                    "type": "uint256",
                    "internalType": "uint256"
                }
            ],
            "stateMutability": "nonpayable"
        },
        {
            "type": "function",
            "name": "transferOwnership",
            "inputs": [
                {
                    "name": "newOwner",
                    "type": "address",
                    "internalType": "address"
                }
            ],
            "outputs": [],
            "stateMutability": "nonpayable"
        },
        {
            "type": "function",
            "name": "underlyingAsset",
            "inputs": [
                {
                    "name": "id",
                    "type": "bytes32",
                    "internalType": "MarketId"
                }
            ],
            "outputs": [
                {
                    "name": "collateralAsset",
                    "type": "address",
                    "internalType": "address"
                },
                {
                    "name": "referenceAsset",
                    "type": "address",
                    "internalType": "address"
                }
            ],
            "stateMutability": "view"
        },
        {
            "type": "function",
            "name": "unwindDeposit",
            "inputs": [
                {
                    "name": "id",
                    "type": "bytes32",
                    "internalType": "MarketId"
                },
                {
                    "name": "collateralAmtOut",
                    "type": "uint256",
                    "internalType": "uint256"
                }
            ],
            "outputs": [
                {
                    "name": "swapTokenAndPrincipalTokenIn",
                    "type": "uint256",
                    "internalType": "uint256"
                }
            ],
            "stateMutability": "nonpayable"
        },
        {
            "type": "function",
            "name": "unwindExercise",
            "inputs": [
                {
                    "name": "poolId",
                    "type": "bytes32",
                    "internalType": "MarketId"
                },
                {
                    "name": "sharesAmount",
                    "type": "uint256",
                    "internalType": "uint256"
                },
                {
                    "name": "receiver",
                    "type": "address",
                    "internalType": "address"
                },
                {
                    "name": "minCompensationOut",
                    "type": "uint256",
                    "internalType": "uint256"
                },
                {
                    "name": "maxAssetIn",
                    "type": "uint256",
                    "internalType": "uint256"
                }
            ],
            "outputs": [
                {
                    "name": "assetIn",
                    "type": "uint256",
                    "internalType": "uint256"
                },
                {
                    "name": "compensationOut",
                    "type": "uint256",
                    "internalType": "uint256"
                }
            ],
            "stateMutability": "nonpayable"
        },
        {
            "type": "function",
            "name": "unwindMint",
            "inputs": [
                {
                    "name": "id",
                    "type": "bytes32",
                    "internalType": "MarketId"
                },
                {
                    "name": "cptAndCstAmountIn",
                    "type": "uint256",
                    "internalType": "uint256"
                }
            ],
            "outputs": [
                {
                    "name": "collateralAsset",
                    "type": "uint256",
                    "internalType": "uint256"
                }
            ],
            "stateMutability": "nonpayable"
        },
        {
            "type": "function",
            "name": "unwindSwap",
            "inputs": [
                {
                    "name": "id",
                    "type": "bytes32",
                    "internalType": "MarketId"
                },
                {
                    "name": "amount",
                    "type": "uint256",
                    "internalType": "uint256"
                },
                {
                    "name": "receiver",
                    "type": "address",
                    "internalType": "address"
                }
            ],
            "outputs": [
                {
                    "name": "receivedReferenceAsset",
                    "type": "uint256",
                    "internalType": "uint256"
                },
                {
                    "name": "receivedSwapToken",
                    "type": "uint256",
                    "internalType": "uint256"
                },
                {
                    "name": "feePercentage",
                    "type": "uint256",
                    "internalType": "uint256"
                },
                {
                    "name": "fee",
                    "type": "uint256",
                    "internalType": "uint256"
                },
                {
                    "name": "exchangeRates",
                    "type": "uint256",
                    "internalType": "uint256"
                }
            ],
            "stateMutability": "nonpayable"
        },
        {
            "type": "function",
            "name": "unwindSwapFee",
            "inputs": [
                {
                    "name": "id",
                    "type": "bytes32",
                    "internalType": "MarketId"
                }
            ],
            "outputs": [
                {
                    "name": "fees",
                    "type": "uint256",
                    "internalType": "uint256"
                }
            ],
            "stateMutability": "view"
        },
        {
            "type": "function",
            "name": "unwindSwapRates",
            "inputs": [
                {
                    "name": "id",
                    "type": "bytes32",
                    "internalType": "MarketId"
                }
            ],
            "outputs": [
                {
                    "name": "rates",
                    "type": "uint256",
                    "internalType": "uint256"
                }
            ],
            "stateMutability": "view"
        },
        {
            "type": "function",
            "name": "updateBaseRedemptionFeePercentage",
            "inputs": [
                {
                    "name": "id",
                    "type": "bytes32",
                    "internalType": "MarketId"
                },
                {
                    "name": "newBaseRedemptionFeePercentage",
                    "type": "uint256",
                    "internalType": "uint256"
                }
            ],
            "outputs": [],
            "stateMutability": "nonpayable"
        },
        {
            "type": "function",
            "name": "updateUnwindSwapFeeRate",
            "inputs": [
                {
                    "name": "id",
                    "type": "bytes32",
                    "internalType": "MarketId"
                },
                {
                    "name": "newUnwindSwapFeePercentage",
                    "type": "uint256",
                    "internalType": "uint256"
                }
            ],
            "outputs": [],
            "stateMutability": "nonpayable"
        },
        {
            "type": "function",
            "name": "upgradeToAndCall",
            "inputs": [
                {
                    "name": "newImplementation",
                    "type": "address",
                    "internalType": "address"
                },
                {
                    "name": "data",
                    "type": "bytes",
                    "internalType": "bytes"
                }
            ],
            "outputs": [],
            "stateMutability": "payable"
        },
        {
            "type": "function",
            "name": "valueLocked",
            "inputs": [
                {
                    "name": "id",
                    "type": "bytes32",
                    "internalType": "MarketId"
                },
                {
                    "name": "collateralAsset",
                    "type": "bool",
                    "internalType": "bool"
                }
            ],
            "outputs": [
                {
                    "name": "lockedAmount",
                    "type": "uint256",
                    "internalType": "uint256"
                }
            ],
            "stateMutability": "view"
        },
        {
            "type": "function",
            "name": "withdraw",
            "inputs": [
                {
                    "name": "id",
                    "type": "bytes32",
                    "internalType": "MarketId"
                },
                {
                    "name": "collateralAssetOut",
                    "type": "uint256",
                    "internalType": "uint256"
                },
                {
                    "name": "referenceAssetOut",
                    "type": "uint256",
                    "internalType": "uint256"
                },
                {
                    "name": "owner",
                    "type": "address",
                    "internalType": "address"
                },
                {
                    "name": "receiver",
                    "type": "address",
                    "internalType": "address"
                }
            ],
            "outputs": [
                {
                    "name": "sharesIn",
                    "type": "uint256",
                    "internalType": "uint256"
                },
                {
                    "name": "actualReferenceAssetOut",
                    "type": "uint256",
                    "internalType": "uint256"
                }
            ],
            "stateMutability": "nonpayable"
        },
        {
            "type": "event",
            "name": "BaseRedemptionFeePercentageUpdated",
            "inputs": [
                {
                    "name": "id",
                    "type": "bytes32",
                    "indexed": true,
                    "internalType": "MarketId"
                },
                {
                    "name": "baseRedemptionFeePercentage",
                    "type": "uint256",
                    "indexed": true,
                    "internalType": "uint256"
                }
            ],
            "anonymous": false
        },
        {
            "type": "event",
            "name": "Deposit",
            "inputs": [
                {
                    "name": "marketId",
                    "type": "bytes32",
                    "indexed": true,
                    "internalType": "MarketId"
                },
                {
                    "name": "sender",
                    "type": "address",
                    "indexed": true,
                    "internalType": "address"
                },
                {
                    "name": "owner",
                    "type": "address",
                    "indexed": true,
                    "internalType": "address"
                },
                {
                    "name": "assets",
                    "type": "uint256",
                    "indexed": false,
                    "internalType": "uint256"
                },
                {
                    "name": "shares",
                    "type": "uint256",
                    "indexed": false,
                    "internalType": "uint256"
                }
            ],
            "anonymous": false
        },
        {
            "type": "event",
            "name": "DepositPaused",
            "inputs": [
                {
                    "name": "marketId",
                    "type": "bytes32",
                    "indexed": true,
                    "internalType": "MarketId"
                }
            ],
            "anonymous": false
        },
        {
            "type": "event",
            "name": "DepositUnpaused",
            "inputs": [
                {
                    "name": "marketId",
                    "type": "bytes32",
                    "indexed": true,
                    "internalType": "MarketId"
                }
            ],
            "anonymous": false
        },
        {
            "type": "event",
            "name": "Initialized",
            "inputs": [
                {
                    "name": "version",
                    "type": "uint64",
                    "indexed": false,
                    "internalType": "uint64"
                }
            ],
            "anonymous": false
        },
        {
            "type": "event",
            "name": "MarketCreated",
            "inputs": [
                {
                    "name": "id",
                    "type": "bytes32",
                    "indexed": true,
                    "internalType": "MarketId"
                },
                {
                    "name": "referenceAsset",
                    "type": "address",
                    "indexed": true,
                    "internalType": "address"
                },
                {
                    "name": "collateralAsset",
                    "type": "address",
                    "indexed": true,
                    "internalType": "address"
                },
                {
                    "name": "expiry",
                    "type": "uint256",
                    "indexed": false,
                    "internalType": "uint256"
                },
                {
                    "name": "exchangeRateProvider",
                    "type": "address",
                    "indexed": false,
                    "internalType": "address"
                },
                {
                    "name": "principalToken",
                    "type": "address",
                    "indexed": false,
                    "internalType": "address"
                },
                {
                    "name": "swapToken",
                    "type": "address",
                    "indexed": false,
                    "internalType": "address"
                }
            ],
            "anonymous": false
        },
        {
            "type": "event",
            "name": "OwnershipTransferred",
            "inputs": [
                {
                    "name": "previousOwner",
                    "type": "address",
                    "indexed": true,
                    "internalType": "address"
                },
                {
                    "name": "newOwner",
                    "type": "address",
                    "indexed": true,
                    "internalType": "address"
                }
            ],
            "anonymous": false
        },
        {
            "type": "event",
            "name": "ReturnPaused",
            "inputs": [
                {
                    "name": "marketId",
                    "type": "bytes32",
                    "indexed": true,
                    "internalType": "MarketId"
                }
            ],
            "anonymous": false
        },
        {
            "type": "event",
            "name": "ReturnUnpaused",
            "inputs": [
                {
                    "name": "marketId",
                    "type": "bytes32",
                    "indexed": true,
                    "internalType": "MarketId"
                }
            ],
            "anonymous": false
        },
        {
            "type": "event",
            "name": "Swap",
            "inputs": [
                {
                    "name": "id",
                    "type": "bytes32",
                    "indexed": true,
                    "internalType": "MarketId"
                },
                {
                    "name": "swaper",
                    "type": "address",
                    "indexed": true,
                    "internalType": "address"
                },
                {
                    "name": "paUsed",
                    "type": "uint256",
                    "indexed": false,
                    "internalType": "uint256"
                },
                {
                    "name": "swapTokenUsed",
                    "type": "uint256",
                    "indexed": false,
                    "internalType": "uint256"
                },
                {
                    "name": "raReceived",
                    "type": "uint256",
                    "indexed": false,
                    "internalType": "uint256"
                },
                {
                    "name": "dsExchangeRate",
                    "type": "uint256",
                    "indexed": false,
                    "internalType": "uint256"
                },
                {
                    "name": "feePercentage",
                    "type": "uint256",
                    "indexed": false,
                    "internalType": "uint256"
                },
                {
                    "name": "fee",
                    "type": "uint256",
                    "indexed": false,
                    "internalType": "uint256"
                }
            ],
            "anonymous": false
        },
        {
            "type": "event",
            "name": "SwapPaused",
            "inputs": [
                {
                    "name": "marketId",
                    "type": "bytes32",
                    "indexed": true,
                    "internalType": "MarketId"
                }
            ],
            "anonymous": false
        },
        {
            "type": "event",
            "name": "SwapUnpaused",
            "inputs": [
                {
                    "name": "marketId",
                    "type": "bytes32",
                    "indexed": true,
                    "internalType": "MarketId"
                }
            ],
            "anonymous": false
        },
        {
            "type": "event",
            "name": "UnwindSwap",
            "inputs": [
                {
                    "name": "id",
                    "type": "bytes32",
                    "indexed": true,
                    "internalType": "MarketId"
                },
                {
                    "name": "buyer",
                    "type": "address",
                    "indexed": true,
                    "internalType": "address"
                },
                {
                    "name": "raUsed",
                    "type": "uint256",
                    "indexed": false,
                    "internalType": "uint256"
                },
                {
                    "name": "receivedReferenceAsset",
                    "type": "uint256",
                    "indexed": false,
                    "internalType": "uint256"
                },
                {
                    "name": "receivedSwapToken",
                    "type": "uint256",
                    "indexed": false,
                    "internalType": "uint256"
                },
                {
                    "name": "feePercentage",
                    "type": "uint256",
                    "indexed": false,
                    "internalType": "uint256"
                },
                {
                    "name": "fee",
                    "type": "uint256",
                    "indexed": false,
                    "internalType": "uint256"
                },
                {
                    "name": "exchangeRates",
                    "type": "uint256",
                    "indexed": false,
                    "internalType": "uint256"
                }
            ],
            "anonymous": false
        },
        {
            "type": "event",
            "name": "UnwindSwapFeeRateUpdated",
            "inputs": [
                {
                    "name": "id",
                    "type": "bytes32",
                    "indexed": true,
                    "internalType": "MarketId"
                },
                {
                    "name": "unwindSwapFeeRate",
                    "type": "uint256",
                    "indexed": true,
                    "internalType": "uint256"
                }
            ],
            "anonymous": false
        },
        {
            "type": "event",
            "name": "UnwindSwapPaused",
            "inputs": [
                {
                    "name": "marketId",
                    "type": "bytes32",
                    "indexed": true,
                    "internalType": "MarketId"
                }
            ],
            "anonymous": false
        },
        {
            "type": "event",
            "name": "UnwindSwapUnpaused",
            "inputs": [
                {
                    "name": "marketId",
                    "type": "bytes32",
                    "indexed": true,
                    "internalType": "MarketId"
                }
            ],
            "anonymous": false
        },
        {
            "type": "event",
            "name": "Upgraded",
            "inputs": [
                {
                    "name": "implementation",
                    "type": "address",
                    "indexed": true,
                    "internalType": "address"
                }
            ],
            "anonymous": false
        },
        {
            "type": "event",
            "name": "WithdrawExtended",
            "inputs": [
                {
                    "name": "marketId",
                    "type": "bytes32",
                    "indexed": true,
                    "internalType": "MarketId"
                },
                {
                    "name": "sender",
                    "type": "address",
                    "indexed": true,
                    "internalType": "address"
                },
                {
                    "name": "owner",
                    "type": "address",
                    "indexed": true,
                    "internalType": "address"
                },
                {
                    "name": "assets0",
                    "type": "uint256",
                    "indexed": false,
                    "internalType": "uint256"
                },
                {
                    "name": "assets1",
                    "type": "uint256",
                    "indexed": false,
                    "internalType": "uint256"
                },
                {
                    "name": "shares0",
                    "type": "uint256",
                    "indexed": false,
                    "internalType": "uint256"
                },
                {
                    "name": "shares1",
                    "type": "uint256",
                    "indexed": false,
                    "internalType": "uint256"
                }
            ],
            "anonymous": false
        },
        {
            "type": "event",
            "name": "WithdrawalPaused",
            "inputs": [
                {
                    "name": "marketId",
                    "type": "bytes32",
                    "indexed": true,
                    "internalType": "MarketId"
                }
            ],
            "anonymous": false
        },
        {
            "type": "event",
            "name": "WithdrawalUnpaused",
            "inputs": [
                {
                    "name": "marketId",
                    "type": "bytes32",
                    "indexed": true,
                    "internalType": "MarketId"
                }
            ],
            "anonymous": false
        },
        {
            "type": "error",
            "name": "AddressEmptyCode",
            "inputs": [
                {
                    "name": "target",
                    "type": "address",
                    "internalType": "address"
                }
            ]
        },
        {
            "type": "error",
            "name": "AlreadyInitialized",
            "inputs": []
        },
        {
            "type": "error",
            "name": "ERC1967InvalidImplementation",
            "inputs": [
                {
                    "name": "implementation",
                    "type": "address",
                    "internalType": "address"
                }
            ]
        },
        {
            "type": "error",
            "name": "ERC1967NonPayable",
            "inputs": []
        },
        {
            "type": "error",
            "name": "ExcessiveInput",
            "inputs": [
                {
                    "name": "inputAmount",
                    "type": "uint256",
                    "internalType": "uint256"
                },
                {
                    "name": "maxAllowed",
                    "type": "uint256",
                    "internalType": "uint256"
                }
            ]
        },
        {
            "type": "error",
            "name": "Expired",
            "inputs": []
        },
        {
            "type": "error",
            "name": "FailedCall",
            "inputs": []
        },
        {
            "type": "error",
            "name": "InsufficientLiquidity",
            "inputs": [
                {
                    "name": "available",
                    "type": "uint256",
                    "internalType": "uint256"
                },
                {
                    "name": "requested",
                    "type": "uint256",
                    "internalType": "uint256"
                }
            ]
        },
        {
            "type": "error",
            "name": "InsufficientOutputAmount",
            "inputs": [
                {
                    "name": "amountOutMin",
                    "type": "uint256",
                    "internalType": "uint256"
                },
                {
                    "name": "received",
                    "type": "uint256",
                    "internalType": "uint256"
                }
            ]
        },
        {
            "type": "error",
            "name": "InvalidAddress",
            "inputs": []
        },
        {
            "type": "error",
            "name": "InvalidAmount",
            "inputs": []
        },
        {
            "type": "error",
            "name": "InvalidExpiry",
            "inputs": []
        },
        {
            "type": "error",
            "name": "InvalidFees",
            "inputs": []
        },
        {
            "type": "error",
            "name": "InvalidInitialization",
            "inputs": []
        },
        {
            "type": "error",
            "name": "InvalidParams",
            "inputs": []
        },
        {
            "type": "error",
            "name": "InvalidRate",
            "inputs": []
        },
        {
            "type": "error",
            "name": "NotCorkPool",
            "inputs": []
        },
        {
            "type": "error",
            "name": "NotExpired",
            "inputs": []
        },
        {
            "type": "error",
            "name": "NotInitialized",
            "inputs": []
        },
        {
            "type": "error",
            "name": "NotInitializing",
            "inputs": []
        },
        {
            "type": "error",
            "name": "OnlyConfigAllowed",
            "inputs": []
        },
        {
            "type": "error",
            "name": "OwnableInvalidOwner",
            "inputs": [
                {
                    "name": "owner",
                    "type": "address",
                    "internalType": "address"
                }
            ]
        },
        {
            "type": "error",
            "name": "OwnableUnauthorizedAccount",
            "inputs": [
                {
                    "name": "account",
                    "type": "address",
                    "internalType": "address"
                }
            ]
        },
        {
            "type": "error",
            "name": "Paused",
            "inputs": []
        },
        {
            "type": "error",
            "name": "ReentrancyGuardReentrantCall",
            "inputs": []
        },
        {
            "type": "error",
            "name": "SameStatus",
            "inputs": []
        },
        {
            "type": "error",
            "name": "UUPSUnauthorizedCallContext",
            "inputs": []
        },
        {
            "type": "error",
            "name": "UUPSUnsupportedProxiableUUID",
            "inputs": [
                {
                    "name": "slot",
                    "type": "bytes32",
                    "internalType": "bytes32"
                }
            ]
        },
        {
            "type": "error",
            "name": "Uninitialized",
            "inputs": []
        },
        {
            "type": "error",
            "name": "ZeroAddress",
            "inputs": []
        },
        {
            "type": "error",
            "name": "ZeroDeposit",
            "inputs": []
        }
    ],
    "bytecode": {
        "object": "0x60a060405230608052348015610013575f5ffd5b5061001c610021565b6100d3565b7ff0c57e16840df040f15088dc2f81fe391c3923bec73e23a9662efc9c229c6a00805468010000000000000000900460ff16156100715760405163f92ee8a960e01b815260040160405180910390fd5b80546001600160401b03908116146100d05780546001600160401b0319166001600160401b0390811782556040519081527fc7f505b2f371ae2175ee4913f4499e1f2633a7b5936321eed1cdaeb6115181d29060200160405180910390a15b50565b60805161473b6100f95f395f81816135010152818161352a015261366e015261473b5ff3fe60806040526004361061037c575f3560e01c8063a1ce0544116101d3578063d2ec5fca116100fd578063e1856ff41161009d578063f2fde38b1161006d578063f2fde38b14610c91578063f675dec414610cb0578063f8676b9a14610ccf578063f93f456f14610cee575f5ffd5b8063e1856ff414610c34578063edc0f5d814610c53578063ede719b71461046b578063ee3a4cba14610c72575f5ffd5b8063da3d99ee116100d8578063da3d99ee14610b9f578063dbd035ff14610be2578063e002460414610c01578063e0245d3314610c15575f5ffd5b8063d2ec5fca14610b42578063d860ec7514610b61578063d8e074b914610b80575f5ffd5b8063b7b7d73c11610173578063c4f7299711610143578063c4f7299714610ae2578063c923602314610b04578063cd68b7ee14610ae2578063cf7ba84514610b23575f5ffd5b8063b7b7d73c14610a68578063b947ce1f14610a87578063c45a015514610aa6578063c4a6811114610ac3575f5ffd5b8063ad3cb1cc116101ae578063ad3cb1cc146109b3578063af69dc45146109f0578063b3c17d1214610a0f578063b543a65f14610a2e575f5ffd5b8063a1ce054414610956578063a351704a14610975578063a9cabad814610994575f5ffd5b806335fd631a116102b45780636270009c116102545780639090ee31116102245780639090ee31146108da5780639bdba47b146108f95780639c11d3e814610918578063a07b3c7914610937575f5ffd5b80636270009c146107cb578063715018a6146107ea5780638da5cb5b146107fe5780638e0c8df21461084e575f5ffd5b8063485cc9551161028f578063485cc955146106eb5780634f1ef2861461070c57806352d1902d1461071f5780635c60e39a14610733575f5ffd5b806335fd631a14610661578063410ae0e81461068d578063465dd244146106cc575f5ffd5b80631bfb980b1161031f5780631ffc2849116102fa5780631ffc2849146105065780632443dfd814610597578063292fee34146106145780633496677214610633575f5ffd5b80631bfb980b146104a95780631de26e16146104c85780631e2eaeaf146104e7575f5ffd5b80630f57e8481161035a5780630f57e84814610405578063161db6cd14610424578063165fa2a41461046b5780631a3cee801461048a575f5ffd5b8063031cf70d14610380578063060408a0146103b25780630eac4000146103d1575b5f5ffd5b34801561038b575f5ffd5b5061039f61039a366004613e43565b610d0d565b6040519081526020015b60405180910390f35b3480156103bd575f5ffd5b5061039f6103cc366004613e71565b610e9f565b3480156103dc575f5ffd5b506103f06103eb366004613e88565b610f26565b604080519283526020830191909152016103a9565b348015610410575f5ffd5b5061039f61041f366004613e71565b611058565b34801561042f575f5ffd5b5061044361043e366004613ecd565b61109d565b604080519586526020860194909452928401919091526060830152608082015260a0016103a9565b348015610476575f5ffd5b5061039f610485366004613ecd565b611147565b348015610495575f5ffd5b5061039f6104a4366004613e43565b611176565b3480156104b4575f5ffd5b5061039f6104c3366004613e43565b6111e1565b3480156104d3575f5ffd5b5061039f6104e2366004613ecd565b6112ee565b3480156104f2575f5ffd5b5061039f610501366004613e71565b6113fa565b348015610511575f5ffd5b50610565610520366004613e71565b5f9081526020819052604090206010015460ff6101008204811692600160281b8304821692620100008104831692630100000082048116926401000000009092041690565b60408051951515865293151560208601529115159284019290925290151560608301521515608082015260a0016103a9565b3480156105a2575f5ffd5b506105e56105b1366004613e71565b5f9081526020819052604090208054600182015460028301546003909301546001600160a01b039283169491831693921690565b604080516001600160a01b039586168152938516602085015283019190915290911660608201526080016103a9565b34801561061f575f5ffd5b506103f061062e366004613ecd565b611404565b34801561063e575f5ffd5b5061039f61064d366004613e71565b5f9081526020819052604090206011015490565b34801561066c575f5ffd5b5061068061067b366004613ecd565b6114a2565b6040516103a99190613eed565b348015610698575f5ffd5b506106ac6106a7366004613ecd565b6114df565b6040805194855260208501939093529183015260608201526080016103a9565b3480156106d7575f5ffd5b5061039f6106e6366004613ecd565b611583565b3480156106f6575f5ffd5b5061070a610705366004613f2f565b6116a1565b005b61070a61071a366004613f6f565b6117fd565b34801561072a575f5ffd5b5061039f61181c565b34801561073e575f5ffd5b506107be61074d366004613e71565b604080516080810182525f808252602082018190529181018290526060810191909152505f9081526020818152604091829020825160808101845281546001600160a01b03908116825260018301548116938201939093526002820154938101939093526003015416606082015290565b6040516103a99190614035565b3480156107d6575f5ffd5b5061039f6107e536600461407c565b611837565b3480156107f5575f5ffd5b5061070a611884565b348015610809575f5ffd5b507f9016d09d72d40fdae2fd8ceac6b6234c7706214fd39c1cd1e609a0528c199300546001600160a01b03165b6040516001600160a01b0390911681526020016103a9565b348015610859575f5ffd5b506108ba610868366004613e71565b5f9081526020818152604091829020825160808101845281546001600160a01b039081168083526001840154821694830185905260028401549583019590955260039092015490911660609091015291565b604080516001600160a01b039384168152929091166020830152016103a9565b3480156108e5575f5ffd5b5061039f6108f4366004613e71565b611897565b348015610904575f5ffd5b506103f061091336600461409f565b6118dc565b348015610923575f5ffd5b506103f0610932366004613ecd565b611a37565b348015610942575f5ffd5b506103f0610951366004613e71565b611ad5565b348015610961575f5ffd5b506103f06109703660046140e6565b611b1d565b348015610980575f5ffd5b5061039f61098f366004613e43565b611c73565b34801561099f575f5ffd5b5061039f6109ae366004613ecd565b611cc7565b3480156109be575f5ffd5b506109e3604051806040016040528060058152602001640352e302e360dc1b81525081565b6040516103a99190614138565b3480156109fb575f5ffd5b506103f0610a0a366004613ecd565b611cf6565b348015610a1a575f5ffd5b5061070a610a29366004613ecd565b611d48565b348015610a39575f5ffd5b50610a4d610a4836600461416d565b611df5565b604080519384526020840192909252908201526060016103a9565b348015610a73575f5ffd5b5061039f610a82366004613e43565b611e9f565b348015610a92575f5ffd5b506103f0610aa136600461416d565b611f0f565b348015610ab1575f5ffd5b506001546001600160a01b0316610836565b348015610ace575f5ffd5b5061070a610add366004614196565b611f6f565b348015610aed575f5ffd5b5061039f610afc366004613e43565b505f19919050565b348015610b0f575f5ffd5b5061070a610b1e3660046141db565b612238565b348015610b2e575f5ffd5b5061070a610b3d366004613ecd565b612650565b348015610b4d575f5ffd5b5061039f610b5c366004613e71565b6126fd565b348015610b6c575f5ffd5b506103f0610b7b36600461409f565b61277d565b348015610b8b575f5ffd5b5061039f610b9a366004613ecd565b6128c0565b348015610baa575f5ffd5b506108ba610bb9366004613e71565b5f90815260208190526040902060058101546004909101546001600160a01b0391821692911690565b348015610bed575f5ffd5b50610680610bfc36600461421d565b6129b7565b348015610c0c575f5ffd5b506108366129ef565b348015610c20575f5ffd5b5061039f610c2f366004613e43565b612a5f565b348015610c3f575f5ffd5b506103f0610c4e366004613ecd565b612c4a565b348015610c5e575f5ffd5b50610443610c6d36600461428e565b612d86565b348015610c7d575f5ffd5b5061039f610c8c366004613e43565b612ecb565b348015610c9c575f5ffd5b5061070a610cab3660046142b9565b612fea565b348015610cbb575f5ffd5b50610a4d610cca3660046142d4565b61302c565b348015610cda575f5ffd5b5061039f610ce9366004614196565b6131b2565b348015610cf9575f5ffd5b5061039f610d08366004613e43565b6131d0565b5f828152602081905260408082209051632f33a49360e21b81526004810182905273__$a032a5af1093bbfcdab8abb2ca56d5c03f$__9063bcce924c90602401602060405180830381865af4158015610d68573d5f5f3e3d5ffd5b505050506040513d601f19601f82011682018060405250810190610d8c9190614337565b1580610da3575060108101546301000000900460ff165b80610e195750600581015460408051630bc4ed8360e21b815290516001600160a01b0390921691632f13b60c916004818101926020929091908290030181865afa158015610df3573d5f5f3e3d5ffd5b505050506040513d601f19601f82011682018060405250810190610e179190614337565b155b15610e27575f915050610e99565b60058101546040516370a0823160e01b81526001600160a01b038581166004830152909116906370a0823190602401602060405180830381865afa158015610e71573d5f5f3e3d5ffd5b505050506040513d601f19601f82011682018060405250810190610e959190614352565b9150505b92915050565b5f818152602081905260408082209051631ac8d0f960e01b81526004810182905273__$a032a5af1093bbfcdab8abb2ca56d5c03f$__90631ac8d0f9906024015b602060405180830381865af4158015610efb573d5f5f3e3d5ffd5b505050506040513d601f19601f82011682018060405250810190610f1f9190614352565b9392505050565b5f5f610f3061322f565b610f398761329c565b610f428761333a565b5f87815260208190526040902073__$a032a5af1093bbfcdab8abb2ca56d5c03f$__63e81e3f4f82336040516001600160e01b031960e085901b16815260048101929092526001600160a01b03908116602483015289166044820152606481018a90526084810188905260a4810187905260c4016040805180830381865af4158015610fd0573d5f5f3e3d5ffd5b505050506040513d601f19601f82011682018060405250810190610ff49190614369565b909350915033887f06ed2f20538b45039698c763dc14442e53647d726b4718d91fcb1246df1aa060858a61102786613371565b6040805193845260208401929092529082015260600160405180910390a35061104e613405565b9550959350505050565b5f818152602081905260408082209051635bfb49bb60e11b81526004810182905273__$a032a5af1093bbfcdab8abb2ca56d5c03f$__9063b7f6937690602401610ee0565b5f5f5f5f5f6110ab8761329c565b5f87815260208190526040908190209051630dc6c84160e11b815260048101919091526024810187905273__$a032a5af1093bbfcdab8abb2ca56d5c03f$__90631b8d90829060440160c060405180830381865af415801561110f573d5f5f3e3d5ffd5b505050506040513d601f19601f82011682018060405250810190611133919061438b565b50939b929a50909850965090945092505050565b5f6111518361329c565b5f83815260208190526040902060010154610f1f9083906001600160a01b031661342f565b5f82815260208190526040808220905163091c178160e31b8152600481018290526001600160a01b038416602482015273__$a032a5af1093bbfcdab8abb2ca56d5c03f$__906348e0bc08906044015b602060405180830381865af4158015610e71573d5f5f3e3d5ffd5b5f82815260208190526040808220600581015491516370a0823160e01b81526001600160a01b0385811660048301529192849216906370a0823190602401602060405180830381865afa15801561123a573d5f5f3e3d5ffd5b505050506040513d601f19601f8201168201806040525081019061125e9190614352565b6004838101546040516370a0823160e01b81526001600160a01b03888116938201939093529293505f929116906370a0823190602401602060405180830381865afa1580156112af573d5f5f3e3d5ffd5b505050506040513d601f19601f820116820180604052508101906112d39190614352565b90508082106112e257806112e4565b815b9695505050505050565b5f6112f761322f565b6113008361329c565b6113098361333a565b5f8381526020819052604081209073__$a032a5af1093bbfcdab8abb2ca56d5c03f$__6363b60afb83336040516001600160e01b031960e085901b16815260048101929092526001600160a01b03166024820152604481018790526064016040805180830381865af4158015611381573d5f5f3e3d5ffd5b505050506040513d601f19601f820116820180604052508101906113a59190614369565b60408051878152602081018490529081018290529194509150339086907f06ed2f20538b45039698c763dc14442e53647d726b4718d91fcb1246df1aa060906060015b60405180910390a35050610e99613405565b5f81545f5260205ff35b5f5f61140f8461329c565b5f8481526020819052604090819020905163187e2f6760e21b8152600481018290526024810185905273__$a032a5af1093bbfcdab8abb2ca56d5c03f$__906361f8bd9c906044015b6040805180830381865af4158015611472573d5f5f3e3d5ffd5b505050506040513d601f19601f820116820180604052508101906114969190614369565b90969095509350505050565b6060604051808360051b6020835284602084015260408301925080830190505b855483526020830192506001860195508083106114c25781810382f35b5f5f5f5f6114ec8661329c565b5f86815260208190526040908190209051630e68e53160e11b815260048101919091526024810186905273__$a032a5af1093bbfcdab8abb2ca56d5c03f$__90631cd1ca6290604401608060405180830381865af4158015611550573d5f5f3e3d5ffd5b505050506040513d601f19601f8201168201806040525081019061157491906143d1565b92999298509650945092505050565b5f61158c61322f565b6115958361329c565b61159e8361343a565b5f83815260208190526040902060018101546115c49084906001600160a01b031661342f565b91505f73__$a032a5af1093bbfcdab8abb2ca56d5c03f$__630f07798483336040516001600160e01b031960e085901b16815260048101929092526001600160a01b0316602482015260448101869052606401602060405180830381865af4158015611632573d5f5f3e3d5ffd5b505050506040513d601f19601f820116820180604052508101906116569190614352565b905080841461166757611667614404565b6040805185815260208101859052339187917f93132e1aff3c9441c54d85ea484fd7c1c58e973fbd9c32788ae326e2ae53ef7e91016113e8565b7ff0c57e16840df040f15088dc2f81fe391c3923bec73e23a9662efc9c229c6a008054600160401b810460ff16159067ffffffffffffffff165f811580156116e65750825b90505f8267ffffffffffffffff1660011480156117025750303b155b905081158015611710575080155b1561172e5760405163f92ee8a960e01b815260040160405180910390fd5b845467ffffffffffffffff19166001178555831561175857845460ff60401b1916600160401b1785555b6001600160a01b038716158061177557506001600160a01b038616155b156117935760405163d92e233d60e01b815260040160405180910390fd5b61179c33613474565b6117a4613485565b6117ae878761348d565b83156117f457845460ff60401b19168555604051600181527fc7f505b2f371ae2175ee4913f4499e1f2633a7b5936321eed1cdaeb6115181d29060200160405180910390a15b50505050505050565b6118056134f6565b61180e8261359a565b61181882826135a2565b5050565b5f611825613663565b505f5160206146a65f395f51905f5290565b5f828152602081905260408082209051636887c55f60e01b815260048101829052831515602482015273__$a032a5af1093bbfcdab8abb2ca56d5c03f$__90636887c55f906044016111c6565b61188c6136ac565b6118955f613707565b565b5f818152602081905260408082209051633610ca2d60e01b81526004810182905273__$a032a5af1093bbfcdab8abb2ca56d5c03f$__90633610ca2d90602401610ee0565b5f5f6118e661322f565b6118ef8661329c565b6118f886613777565b5f86815260208190526040902073__$a032a5af1093bbfcdab8abb2ca56d5c03f$__630c610a4b82336040516001600160e01b031960e085901b16815260048101929092526001600160a01b0390811660248301528089166044830152871660648201526084810189905260a4016040805180830381865af4158015611980573d5f5f3e3d5ffd5b505050506040513d601f19601f820116820180604052508101906119a49190614369565b604080518981525f60208201529295509093506001600160a01b0386169133918a915f5160206146c65f395f51905f52910160405180910390a4604080515f8082526020820181905291810182905260608101919091526001600160a01b03851690339089905f5160206146e65f395f51905f52906080015b60405180910390a450611a2e613405565b94509492505050565b5f5f611a428461329c565b5f84815260208190526040908190209051630656378360e01b815260048101919091526024810184905273__$a032a5af1093bbfcdab8abb2ca56d5c03f$__906306563783906044015b6040805180830381865af4158015611aa6573d5f5f3e3d5ffd5b505050506040513d601f19601f82011682018060405250810190611aca9190614369565b909590945092505050565b5f8181526020819052604080822090516322f7da4560e11b81526004810182905282919073__$a032a5af1093bbfcdab8abb2ca56d5c03f$__906345efb48a90602401611a8c565b5f5f611b2761322f565b611b308761329c565b611b39876137af565b5f87815260208190526040902073__$a032a5af1093bbfcdab8abb2ca56d5c03f$__631489af6782336040516001600160e01b031960e085901b16815260048101929092526001600160a01b039081166024830152808916604483015287166064820152608481018a905260a4810189905260c4016040805180830381865af4158015611bc8573d5f5f3e3d5ffd5b505050506040513d601f19601f82011682018060405250810190611bec9190614369565b604080518a8152602081018490529295509093506001600160a01b0386169133918b915f5160206146c65f395f51905f52910160405180910390a460408051888152602081018490528082018590525f606082015290516001600160a01b0386169133918b915f5160206146e65f395f51905f52919081900360800190a45061104e613405565b5f828152602081905260408082209051630524569b60e21b8152600481018290526001600160a01b038416602482015273__$a032a5af1093bbfcdab8abb2ca56d5c03f$__906314915a6c906044016111c6565b5f611cd18361329c565b5f83815260208190526040902060010154610f1f9083906001600160a01b03166137e8565b5f5f611d018461329c565b5f848152602081905260409020611d1790613371565b5f85815260208190526040902060010154909150611d3f9084906001600160a01b03166137e8565b91509250929050565b611d506137f3565b5f828152602081905260409081902090516301872ba160e31b8152600481018290526024810183905273__$a032a5af1093bbfcdab8abb2ca56d5c03f$__90630c395d08906044015f6040518083038186803b158015611dae575f5ffd5b505af4158015611dc0573d5f5f3e3d5ffd5b50506040518492508591507f5ae509ff32a47299c688cfe7f7edce5ba2a23e4f42145883617eb5c04928b1bd905f90a3505050565b5f5f5f611e018661329c565b5f868152602081905260409081902090516315f3a35760e31b81526004810191909152602481018690526044810185905273__$a032a5af1093bbfcdab8abb2ca56d5c03f$__9063af9d1ab890606401606060405180830381865af4158015611e6c573d5f5f3e3d5ffd5b505050506040513d601f19601f82011682018060405250810190611e909190614418565b91989097509095509350505050565b5f828152602081905260408120601081015462010000900460ff1615611ec8575f915050610e99565b604051637ff0d71960e01b8152600481018290526001600160a01b038416602482015273__$a032a5af1093bbfcdab8abb2ca56d5c03f$__90637ff0d719906044016111c6565b5f5f611f1a8561329c565b5f858152602081905260409081902090516334faa3e960e01b81526004810191909152602481018590526044810184905273__$a032a5af1093bbfcdab8abb2ca56d5c03f$__906334faa3e990606401611458565b611f776137f3565b815f03611f965760405162d36c8560e81b815260040160405180910390fd5b5f611fa38585858561381e565b90505f611faf82613925565b5f81815260208190526040908190209051632f33a49360e21b8152600481018290529192509073__$a032a5af1093bbfcdab8abb2ca56d5c03f$__9063bcce924c90602401602060405180830381865af415801561200f573d5f5f3e3d5ffd5b505050506040513d601f19601f820116820180604052508101906120339190614337565b156120505760405162dc149f60e41b815260040160405180910390fd5b6040516321c90ced60e21b815273__$a032a5af1093bbfcdab8abb2ca56d5c03f$__9063872433b4906120899084908790600401614443565b5f6040518083038186803b15801561209f575f5ffd5b505af41580156120b1573d5f5f3e3d5ffd5b505050505f6120bf82613954565b6001546040805160c0810182526020888101516001600160a01b03908116835289518116918301918252308385019081528a85015160608086019182528c015183166080860190815260a08601898152965163ec8fe9f360e01b8152955184166004870152935183166024860152905182166044850152516064840152905181166084830152915160a48201529293505f928392919091169063ec8fe9f39060c40160408051808303815f875af115801561217c573d5f5f3e3d5ffd5b505050506040513d601f19601f820116820180604052508101906121a09190614483565b6004860180546001600160a01b038381166001600160a01b03199283168117909355600589018054868316931683179055604080518e81528d831660208201529081019290925260608201929092529294509092508a811691908c169087907f0dac57f1a3acd8bd390ce93fd0b5bacf7fca996d56a73396d7c46ec2223262d89060800160405180910390a450505050505050505050565b6122406137f3565b5f83815260208190526040812090836004811115612260576122606144b0565b0361231457601081015482151561010090910460ff16151503612296576040516324904fe560e01b815260040160405180910390fd5b601081018054831580156101000261ff0019909216919091179091556122e55760405184907f13e0317f2ca8d7a4f2d7ebdcb95fc3016e1583266f21f25e2c05f837379f1586905f90a261264a565b60405184907fe9b271e813c88fd9b7c6b85b85607540f688e16b37256e10aa685d1ff0bd13c4905f90a261264a565b6001836004811115612328576123286144b0565b036123e4576010810154821515600160281b90910460ff16151503612360576040516324904fe560e01b815260040160405180910390fd5b60108101805483158015600160281b0265ff000000000019909216919091179091556123b55760405184907f63df0fa11bb549ffff7f455097a9326cbbc9d5dc5eca8e1f6e0fb8e54b937210905f90a261264a565b60405184907f3d8c59f103fba6542673762d941955d9e818043cebf611a9a5fd627feff75ac5905f90a261264a565b60028360048111156123f8576123f86144b0565b036124af5760108101548215156201000090910460ff1615150361242f576040516324904fe560e01b815260040160405180910390fd5b60108101805483158015620100000262ff000019909216919091179091556124805760405184907fd2ea4038ef27dcd21fd727fc87ed8b51c039189b438bb3aab13a35471aba9092905f90a261264a565b60405184907f4963cbeee4f52cade388cf165383503fbd935ddc5e2ed364809075f3fa3da000905f90a261264a565b60038360048111156124c3576124c36144b0565b0361257d576010810154821515630100000090910460ff161515036124fb576040516324904fe560e01b815260040160405180910390fd5b6010810180548315801563010000000263ff000000199092169190911790915561254e5760405184907fe81ca5f47bc6df53af1a23aa9eaf7637f7955334bf8c694309b9d7f851a97560905f90a261264a565b60405184907f774449a7e1174e958388ce907f432ab3fd8c200c2febba48b8b91baf858ecd73905f90a261264a565b6004836004811115612591576125916144b0565b0361264a57601081015482151564010000000090910460ff161515036125ca576040516324904fe560e01b815260040160405180910390fd5b601081018054831580156401000000000264ff00000000199092169190911790915561261f5760405184907fbbe30629045c830c34bfae354996edc7f30158502b0bc03a1b60115e14ed2870905f90a261264a565b60405184907f1ca4023d95cd56fcf111e2e713725967fe76309d652e9e8fca7c81f344aaff1c905f90a25b50505050565b6126586137f3565b5f82815260208190526040908190209051634979623d60e11b8152600481018290526024810183905273__$a032a5af1093bbfcdab8abb2ca56d5c03f$__906392f2c47a906044015f6040518083038186803b1580156126b6575f5ffd5b505af41580156126c8573d5f5f3e3d5ffd5b50506040518492508591507f2af3c82844c1425b33af6b97ebc6b2d3477051994566829345a158190578b199905f90a3505050565b5f81815260208190526040808220905163133d470760e21b8152600481019190915273__$a032a5af1093bbfcdab8abb2ca56d5c03f$__90634cf51c1c90602401602060405180830381865af4158015612759573d5f5f3e3d5ffd5b505050506040513d601f19601f82011682018060405250810190610e999190614352565b5f5f61278761322f565b6127908661329c565b612799866137af565b5f86815260208190526040902073__$a032a5af1093bbfcdab8abb2ca56d5c03f$__634de8242982336040516001600160e01b031960e085901b16815260048101929092526001600160a01b0390811660248301528089166044830152871660648201526084810189905260a4016040805180830381865af4158015612821573d5f5f3e3d5ffd5b505050506040513d601f19601f820116820180604052508101906128459190614369565b60408051828152602081018a90529295509093506001600160a01b0386169133918a915f5160206146c65f395f51905f52910160405180910390a460408051838152602081018590529081018790525f60608201526001600160a01b03851690339089905f5160206146e65f395f51905f5290608001611a1d565b5f6128c961322f565b6128d28361343a565b5f83815260208190526040902073__$a032a5af1093bbfcdab8abb2ca56d5c03f$__630f07798482336040516001600160e01b031960e085901b16815260048101929092526001600160a01b0316602482015260448101869052606401602060405180830381865af415801561294a573d5f5f3e3d5ffd5b505050506040513d601f19601f8201168201806040525081019061296e9190614352565b6040805182815260208101869052919350339186917f93132e1aff3c9441c54d85ea484fd7c1c58e973fbd9c32788ae326e2ae53ef7e910160405180910390a350610e99613405565b606060405180602082528360208301526040820191508360051b8201855b8035548452602093840193018184106129d5575081810382f35b600254604080516361d027b360e01b815290515f926001600160a01b0316916361d027b39160048083019260209291908290030181865afa158015612a36573d5f5f3e3d5ffd5b505050506040513d601f19601f82011682018060405250810190612a5a91906144c4565b905090565b5f82815260208190526040812060108101546301000000900460ff1615612a89575f915050610e99565b60058101546040516370a0823160e01b81526001600160a01b0385811660048301525f9216906370a0823190602401602060405180830381865afa158015612ad3573d5f5f3e3d5ffd5b505050506040513d601f19601f82011682018060405250810190612af79190614352565b9050805f03612b0a575f92505050610e99565b604051636887c55f60e01b815260048101839052600160248201525f9073__$a032a5af1093bbfcdab8abb2ca56d5c03f$__90636887c55f90604401602060405180830381865af4158015612b61573d5f5f3e3d5ffd5b505050506040513d601f19601f82011682018060405250810190612b859190614352565b9050805f03612b99575f9350505050610e99565b6001830154612bb29082906001600160a01b031661342f565b821015612c4057604051630656378360e01b815260048101849052602481018390525f9073__$a032a5af1093bbfcdab8abb2ca56d5c03f$__906306563783906044016040805180830381865af4158015612c0f573d5f5f3e3d5ffd5b505050506040513d601f19601f82011682018060405250810190612c339190614369565b9550610e99945050505050565b9250610e99915050565b5f5f612c5461322f565b612c5d8461329c565b612c668461333a565b5f8481526020819052604090206001810154612c8c9085906001600160a01b03166137e8565b92505f73__$a032a5af1093bbfcdab8abb2ca56d5c03f$__6363b60afb83336040516001600160e01b031960e085901b16815260048101929092526001600160a01b03166024820152604481018790526064016040805180830381865af4158015612cf9573d5f5f3e3d5ffd5b505050506040513d601f19601f82011682018060405250810190612d1d9190614369565b93509050848114612d3057612d30614404565b6040805185815260208101879052908101849052339087907f06ed2f20538b45039698c763dc14442e53647d726b4718d91fcb1246df1aa0609060600160405180910390a35050612d7f613405565b9250929050565b5f5f5f5f5f612d9361322f565b612d9c88613a90565b5f88815260208190526040902073__$a032a5af1093bbfcdab8abb2ca56d5c03f$__631126f6f282338a8c612dcf6129ef565b6040516001600160e01b031960e088901b16815260048101959095526001600160a01b0393841660248601529183166044850152606484015216608482015260a40160a060405180830381865af4158015612e2c573d5f5f3e3d5ffd5b505050506040513d601f19601f82011682018060405250810190612e5091906144df565b604080518e815260208101879052808201869052606081018590526080810184905260a081018390529051959b509399509197509550935033918b917fae5b899167f42f1cbac737812c57b43b1cc267849d5737380e7ef2e3019c1dd1919081900360c00190a350612ec0613405565b939792965093509350565b5f82815260208190526040808220600581015491516370a0823160e01b81526001600160a01b0385811660048301529192849216906370a0823190602401602060405180830381865afa158015612f24573d5f5f3e3d5ffd5b505050506040513d601f19601f82011682018060405250810190612f489190614352565b6004838101546040516370a0823160e01b81526001600160a01b03888116938201939093529293505f929116906370a0823190602401602060405180830381865afa158015612f99573d5f5f3e3d5ffd5b505050506040513d601f19601f82011682018060405250810190612fbd9190614352565b9050808210612fcc5780612fce565b815b60018401549094506112e49085906001600160a01b03166137e8565b612ff26136ac565b6001600160a01b03811661302057604051631e4fbdf760e01b81525f60048201526024015b60405180910390fd5b61302981613707565b50565b5f5f5f61303761322f565b6130408a61329c565b6130498a613777565b5f8a815260208190526040902073__$a032a5af1093bbfcdab8abb2ca56d5c03f$__631922f91182338b8b8f8f8d8d6130806129ef565b6040516001600160e01b031960e08c901b16815260048101999099526001600160a01b0397881660248a015295871660448901529386166064880152608487019290925260a486015260c485015260e48401521661010482015261012401606060405180830381865af41580156130f9573d5f5f3e3d5ffd5b505050506040513d601f19601f8201168201806040525081019061311d9190614418565b604080518481525f602082015293975091955093506001600160a01b0389169133918e915f5160206146c65f395f51905f52910160405180910390a4604080518581525f60208201819052818301819052606082015290516001600160a01b0389169133918e915f5160206146e65f395f51905f52919081900360800190a4506131a5613405565b9750975097945050505050565b5f6131c76131c28686868661381e565b613925565b95945050505050565b5f6131da8361329c565b5f8381526020819052604090819020905163b71e379760e01b8152600481018290526001600160a01b038416602482015273__$a032a5af1093bbfcdab8abb2ca56d5c03f$__9063b71e3797906044016111c6565b7f9b779b17422d0df92223018b32b4d1fa46e071723d6817e2486d003becc55f005c1561326f57604051633ee5aeb560e01b815260040160405180910390fd5b61189560017f9b779b17422d0df92223018b32b4d1fa46e071723d6817e2486d003becc55f005b90613ac9565b5f81815260208190526040908190209051632f33a49360e21b8152600481019190915273__$a032a5af1093bbfcdab8abb2ca56d5c03f$__9063bcce924c90602401602060405180830381865af41580156132f9573d5f5f3e3d5ffd5b505050506040513d601f19601f8201168201806040525081019061331d9190614337565b613029576040516321c4e35760e21b815260040160405180910390fd5b5f81815260208190526040902060100154610100900460ff1615613029576040516313d0ff5960e31b815260040160405180910390fd5b5f5f61337c83613954565b60048085015460408051633ba0b9a960e01b815290519394505f936001600160a01b0390921692633ba0b9a99282820192602092908290030181865afa1580156133c8573d5f5f3e3d5ffd5b505050506040513d601f19601f820116820180604052508101906133ec9190614352565b90508082106133fb57806133fd565b815b949350505050565b6118955f7f9b779b17422d0df92223018b32b4d1fa46e071723d6817e2486d003becc55f00613296565b5f610f1f8383613ad0565b5f81815260208190526040902060100154640100000000900460ff1615613029576040516313d0ff5960e31b815260040160405180910390fd5b61347c613b40565b61302981613b89565b611895613b40565b6001600160a01b03821615806134aa57506001600160a01b038116155b156134c85760405163d92e233d60e01b815260040160405180910390fd5b600180546001600160a01b039384166001600160a01b03199182161790915560028054929093169116179055565b306001600160a01b037f000000000000000000000000000000000000000000000000000000000000000016148061357c57507f00000000000000000000000000000000000000000000000000000000000000006001600160a01b03166135705f5160206146a65f395f51905f52546001600160a01b031690565b6001600160a01b031614155b156118955760405163703e46dd60e11b815260040160405180910390fd5b6130296136ac565b816001600160a01b03166352d1902d6040518163ffffffff1660e01b8152600401602060405180830381865afa9250505080156135fc575060408051601f3d908101601f191682019092526135f991810190614352565b60015b61362457604051634c9c8ce360e01b81526001600160a01b0383166004820152602401613017565b5f5160206146a65f395f51905f52811461365457604051632a87526960e21b815260048101829052602401613017565b61365e8383613b91565b505050565b306001600160a01b037f000000000000000000000000000000000000000000000000000000000000000016146118955760405163703e46dd60e11b815260040160405180910390fd5b336136de7f9016d09d72d40fdae2fd8ceac6b6234c7706214fd39c1cd1e609a0528c199300546001600160a01b031690565b6001600160a01b0316146118955760405163118cdaa760e01b8152336004820152602401613017565b7f9016d09d72d40fdae2fd8ceac6b6234c7706214fd39c1cd1e609a0528c19930080546001600160a01b031981166001600160a01b03848116918217845560405192169182907f8be0079c531659141344cd1fd0a4f28419497f9722a3daafe3b4186f6b6457e0905f90a3505050565b5f8181526020819052604090206010015462010000900460ff1615613029576040516313d0ff5960e31b815260040160405180910390fd5b5f818152602081905260409020601001546301000000900460ff1615613029576040516313d0ff5960e31b815260040160405180910390fd5b5f610f1f8383613be6565b6002546001600160a01b03163314611895576040516354682c0160e01b815260040160405180910390fd5b604080516080810182525f8082526020820181905291810182905260608101919091526001600160a01b038516158061385e57506001600160a01b038416155b1561387c5760405163d92e233d60e01b815260040160405180910390fd5b836001600160a01b0316856001600160a01b0316036138ae5760405163e6c4247b60e01b815260040160405180910390fd5b825f036138cd5760405162d36c8560e81b815260040160405180910390fd5b6001600160a01b0382166138f45760405163d92e233d60e01b815260040160405180910390fd5b50604080516080810182526001600160a01b0395861681529385166020850152830191909152909116606082015290565b5f816040516020016139379190614035565b604051602081830303815290604052805190602001209050919050565b6040805160808101825282546001600160a01b039081168252600184015481166020830152600284015492820192909252600383015490911660608201525f90819061399f90613925565b90505f835f016003015f9054906101000a90046001600160a01b03166001600160a01b0316632c4e722e6040518163ffffffff1660e01b8152600401602060405180830381865afa1580156139f6573d5f5f3e3d5ffd5b505050506040513d601f19601f82011682018060405250810190613a1a9190614352565b9050805f03610f1f576003840154604051633b881c0960e21b8152600481018490526001600160a01b039091169063ee20702490602401602060405180830381865afa158015613a6c573d5f5f3e3d5ffd5b505050506040513d601f19601f820116820180604052508101906133fd9190614352565b5f81815260208190526040902060100154600160281b900460ff1615613029576040516313d0ff5960e31b815260040160405180910390fd5b80825d5050565b5f5f826001600160a01b031663313ce5676040518163ffffffff1660e01b8152600401602060405180830381865afa158015613b0e573d5f5f3e3d5ffd5b505050506040513d601f19601f82011682018060405250810190613b32919061451b565b9050610e9584826012613c52565b7ff0c57e16840df040f15088dc2f81fe391c3923bec73e23a9662efc9c229c6a0054600160401b900460ff1661189557604051631afcd79f60e31b815260040160405180910390fd5b612ff2613b40565b613b9a82613cbf565b6040516001600160a01b038316907fbc7cd75a20ee27fd9adebab32041f755214dbc6bffa90cc0225b39da2e5c2d3b905f90a2805115613bde5761365e8282613d22565b611818613d8b565b5f5f826001600160a01b031663313ce5676040518163ffffffff1660e01b8152600401602060405180830381865afa158015613c24573d5f5f3e3d5ffd5b505050506040513d601f19601f82011682018060405250810190613c48919061451b565b9050610e95846012835b5f8160ff168360ff161115613c8757613c6b828461454f565b613c7690600a61464b565b613c809085614659565b9350613cb7565b8160ff168360ff161015613cb757613c9f838361454f565b613caa90600a61464b565b613cb49085614678565b93505b509192915050565b806001600160a01b03163b5f03613cf457604051634c9c8ce360e01b81526001600160a01b0382166004820152602401613017565b5f5160206146a65f395f51905f5280546001600160a01b0319166001600160a01b0392909216919091179055565b60605f5f846001600160a01b031684604051613d3e919061468f565b5f60405180830381855af49150503d805f8114613d76576040519150601f19603f3d011682016040523d82523d5f602084013e613d7b565b606091505b50915091506131c7858383613daa565b34156118955760405163b398979f60e01b815260040160405180910390fd5b606082613dbf57613dba82613e06565b610f1f565b8151158015613dd657506001600160a01b0384163b155b15613dff57604051639996b31560e01b81526001600160a01b0385166004820152602401613017565b5080610f1f565b805115613e165780518082602001fd5b60405163d6bda27560e01b815260040160405180910390fd5b6001600160a01b0381168114613029575f5ffd5b5f5f60408385031215613e54575f5ffd5b823591506020830135613e6681613e2f565b809150509250929050565b5f60208284031215613e81575f5ffd5b5035919050565b5f5f5f5f5f60a08688031215613e9c575f5ffd5b85359450602086013593506040860135613eb581613e2f565b94979396509394606081013594506080013592915050565b5f5f60408385031215613ede575f5ffd5b50508035926020909101359150565b602080825282518282018190525f918401906040840190835b81811015613f24578351835260209384019390920191600101613f06565b509095945050505050565b5f5f60408385031215613f40575f5ffd5b8235613f4b81613e2f565b91506020830135613e6681613e2f565b634e487b7160e01b5f52604160045260245ffd5b5f5f60408385031215613f80575f5ffd5b8235613f8b81613e2f565b9150602083013567ffffffffffffffff811115613fa6575f5ffd5b8301601f81018513613fb6575f5ffd5b803567ffffffffffffffff811115613fd057613fd0613f5b565b604051601f8201601f19908116603f0116810167ffffffffffffffff81118282101715613fff57613fff613f5b565b604052818152828201602001871015614016575f5ffd5b816020840160208301375f602083830101528093505050509250929050565b60808101610e99828480516001600160a01b0390811683526020808301518216908401526040808301519084015260609182015116910152565b8015158114613029575f5ffd5b5f5f6040838503121561408d575f5ffd5b823591506020830135613e668161406f565b5f5f5f5f608085870312156140b2575f5ffd5b843593506020850135925060408501356140cb81613e2f565b915060608501356140db81613e2f565b939692955090935050565b5f5f5f5f5f60a086880312156140fa575f5ffd5b853594506020860135935060408601359250606086013561411a81613e2f565b9150608086013561412a81613e2f565b809150509295509295909350565b602081525f82518060208401528060208501604085015e5f604082850101526040601f19601f83011684010191505092915050565b5f5f5f6060848603121561417f575f5ffd5b505081359360208301359350604090920135919050565b5f5f5f5f608085870312156141a9575f5ffd5b84356141b481613e2f565b935060208501356141c481613e2f565b92506040850135915060608501356140db81613e2f565b5f5f5f606084860312156141ed575f5ffd5b83359250602084013560058110614202575f5ffd5b915060408401356142128161406f565b809150509250925092565b5f5f6020838503121561422e575f5ffd5b823567ffffffffffffffff811115614244575f5ffd5b8301601f81018513614254575f5ffd5b803567ffffffffffffffff81111561426a575f5ffd5b8560208260051b840101111561427e575f5ffd5b6020919091019590945092505050565b5f5f5f606084860312156142a0575f5ffd5b8335925060208401359150604084013561421281613e2f565b5f602082840312156142c9575f5ffd5b8135610f1f81613e2f565b5f5f5f5f5f5f5f60e0888a0312156142ea575f5ffd5b873596506020880135955060408801359450606088013561430a81613e2f565b9350608088013561431a81613e2f565b9699959850939692959460a0840135945060c09093013592915050565b5f60208284031215614347575f5ffd5b8151610f1f8161406f565b5f60208284031215614362575f5ffd5b5051919050565b5f5f6040838503121561437a575f5ffd5b505080516020909101519092909150565b5f5f5f5f5f5f60c087890312156143a0575f5ffd5b50508451602086015160408701516060880151608089015160a090990151939a929950909790965094509092509050565b5f5f5f5f608085870312156143e4575f5ffd5b505082516020840151604085015160609095015191969095509092509050565b634e487b7160e01b5f52600160045260245ffd5b5f5f5f6060848603121561442a575f5ffd5b5050815160208301516040909301519094929350919050565b82815260a08101610f1f602083018480516001600160a01b0390811683526020808301518216908401526040808301519084015260609182015116910152565b5f5f60408385031215614494575f5ffd5b825161449f81613e2f565b6020840151909250613e6681613e2f565b634e487b7160e01b5f52602160045260245ffd5b5f602082840312156144d4575f5ffd5b8151610f1f81613e2f565b5f5f5f5f5f60a086880312156144f3575f5ffd5b5050835160208501516040860151606087015160809097015192989197509594509092509050565b5f6020828403121561452b575f5ffd5b815160ff81168114610f1f575f5ffd5b634e487b7160e01b5f52601160045260245ffd5b60ff8281168282160390811115610e9957610e9961453b565b6001815b60018411156145a3578085048111156145875761458761453b565b600184161561459557908102905b60019390931c92800261456c565b935093915050565b5f826145b957506001610e99565b816145c557505f610e99565b81600181146145db57600281146145e557614601565b6001915050610e99565b60ff8411156145f6576145f661453b565b50506001821b610e99565b5060208310610133831016604e8410600b8410161715614624575081810a610e99565b6146305f198484614568565b805f19048211156146435761464361453b565b029392505050565b5f610f1f60ff8416836145ab565b5f8261467357634e487b7160e01b5f52601260045260245ffd5b500490565b8082028115828204841417610e9957610e9961453b565b5f82518060208501845e5f92019182525091905056fe360894a13ba1a3210667c828492db98dca3e2076cc3735a920a3ca505d382bbc77c1bdea1f3bd10268d0ccee81dfee3623cd56914081a41b0a3bf72d9fa9c5f0192e9809779b3cac4098be466341f395f8e8d450279f45b52b9fcea22a2f9eb1a264697066735822122085a77dbaaa3ec69e60dbd8992f5be5393f2909d1811a545e885fbff20ff8907e64736f6c634300081e0033",
        "linkReferences": {
            "contracts/libraries/PoolLib.sol": {
                "PoolLibrary": [
                    {
                        "start": 3625,
                        "length": 20
                    },
                    {
                        "start": 4027,
                        "length": 20
                    },
                    {
                        "start": 4170,
                        "length": 20
                    },
                    {
                        "start": 4468,
                        "length": 20
                    },
                    {
                        "start": 4560,
                        "length": 20
                    },
                    {
                        "start": 4769,
                        "length": 20
                    },
                    {
                        "start": 5138,
                        "length": 20
                    },
                    {
                        "start": 5427,
                        "length": 20
                    },
                    {
                        "start": 5649,
                        "length": 20
                    },
                    {
                        "start": 5826,
                        "length": 20
                    },
                    {
                        "start": 6491,
                        "length": 20
                    },
                    {
                        "start": 6579,
                        "length": 20
                    },
                    {
                        "start": 6656,
                        "length": 20
                    },
                    {
                        "start": 7015,
                        "length": 20
                    },
                    {
                        "start": 7156,
                        "length": 20
                    },
                    {
                        "start": 7233,
                        "length": 20
                    },
                    {
                        "start": 7582,
                        "length": 20
                    },
                    {
                        "start": 7796,
                        "length": 20
                    },
                    {
                        "start": 7981,
                        "length": 20
                    },
                    {
                        "start": 8166,
                        "length": 20
                    },
                    {
                        "start": 8262,
                        "length": 20
                    },
                    {
                        "start": 8400,
                        "length": 20
                    },
                    {
                        "start": 8536,
                        "length": 20
                    },
                    {
                        "start": 10108,
                        "length": 20
                    },
                    {
                        "start": 10266,
                        "length": 20
                    },
                    {
                        "start": 10401,
                        "length": 20
                    },
                    {
                        "start": 10714,
                        "length": 20
                    },
                    {
                        "start": 11298,
                        "length": 20
                    },
                    {
                        "start": 11473,
                        "length": 20
                    },
                    {
                        "start": 11658,
                        "length": 20
                    },
                    {
                        "start": 11940,
                        "length": 20
                    },
                    {
                        "start": 12625,
                        "length": 20
                    },
                    {
                        "start": 13062,
                        "length": 20
                    },
                    {
                        "start": 13242,
                        "length": 20
                    }
                ]
            }
        }
    },
    "methodIdentifiers": {
        "UPGRADE_INTERFACE_VERSION()": "ad3cb1cc",
        "availableForUnwindSwap(bytes32)": "a07b3c79",
        "baseRedemptionFee(bytes32)": "34966772",
        "createNewMarket(address,address,uint256,address)": "c4a68111",
        "deposit(bytes32,uint256)": "1de26e16",
        "exchangeRate(bytes32)": "0f57e848",
        "exercise(bytes32,uint256,uint256,address,address,uint256,uint256)": "f675dec4",
        "expiry(bytes32)": "d2ec5fca",
        "extsload(bytes32)": "1e2eaeaf",
        "extsload(bytes32,uint256)": "35fd631a",
        "extsload(bytes32[])": "dbd035ff",
        "factory()": "c45a0155",
        "getId(address,address,uint256,address)": "f8676b9a",
        "getTreasuryAddress()": "e0024604",
        "initialize(address,address)": "485cc955",
        "market(bytes32)": "5c60e39a",
        "marketDetails(bytes32)": "2443dfd8",
        "maxDeposit(bytes32,address)": "c4f72997",
        "maxExercise(bytes32,address)": "b7b7d73c",
        "maxMint(bytes32,address)": "cd68b7ee",
        "maxRedeem(bytes32,address)": "031cf70d",
        "maxSwap(bytes32,address)": "a351704a",
        "maxUnwindDeposit(bytes32,address)": "ee3a4cba",
        "maxUnwindExercise(bytes32,address)": "f93f456f",
        "maxUnwindMint(bytes32,address)": "1bfb980b",
        "maxUnwindSwap(bytes32,address)": "1a3cee80",
        "maxWithdraw(bytes32,address)": "e0245d33",
        "mint(bytes32,uint256)": "e1856ff4",
        "owner()": "8da5cb5b",
        "pausedStates(bytes32)": "1ffc2849",
        "previewDeposit(bytes32,uint256)": "ede719b7",
        "previewExercise(bytes32,uint256,uint256)": "b543a65f",
        "previewMint(bytes32,uint256)": "af69dc45",
        "previewRedeem(bytes32,uint256)": "9c11d3e8",
        "previewSwap(bytes32,uint256)": "410ae0e8",
        "previewUnwindDeposit(bytes32,uint256)": "165fa2a4",
        "previewUnwindExercise(bytes32,uint256)": "292fee34",
        "previewUnwindMint(bytes32,uint256)": "a9cabad8",
        "previewUnwindSwap(bytes32,uint256)": "161db6cd",
        "previewWithdraw(bytes32,uint256,uint256)": "b947ce1f",
        "proxiableUUID()": "52d1902d",
        "redeem(bytes32,uint256,address,address)": "d860ec75",
        "renounceOwnership()": "715018a6",
        "setPausedState(bytes32,uint8,bool)": "c9236023",
        "swap(bytes32,uint256,address,address)": "9bdba47b",
        "swapAsset(bytes32)": "da3d99ee",
        "transferOwnership(address)": "f2fde38b",
        "underlyingAsset(bytes32)": "8e0c8df2",
        "unwindDeposit(bytes32,uint256)": "465dd244",
        "unwindExercise(bytes32,uint256,address,uint256,uint256)": "0eac4000",
        "unwindMint(bytes32,uint256)": "d8e074b9",
        "unwindSwap(bytes32,uint256,address)": "edc0f5d8",
        "unwindSwapFee(bytes32)": "060408a0",
        "unwindSwapRates(bytes32)": "9090ee31",
        "updateBaseRedemptionFeePercentage(bytes32,uint256)": "cf7ba845",
        "updateUnwindSwapFeeRate(bytes32,uint256)": "b3c17d12",
        "upgradeToAndCall(address,bytes)": "4f1ef286",
        "valueLocked(bytes32,bool)": "6270009c",
        "withdraw(bytes32,uint256,uint256,address,address)": "a1ce0544"
    },
    "storageLayout": {
        "storage": [
            {
                "astId": 2994,
                "contract": "contracts/core/CorkPool.sol:CorkPool",
                "label": "states",
                "offset": 0,
                "slot": "0",
                "type": "t_mapping(t_userDefinedValueType(MarketId)5518,t_struct(State)9209_storage)"
            },
            {
                "astId": 2996,
                "contract": "contracts/core/CorkPool.sol:CorkPool",
                "label": "SHARES_FACTORY",
                "offset": 0,
                "slot": "1",
                "type": "t_address"
            },
            {
                "astId": 2998,
                "contract": "contracts/core/CorkPool.sol:CorkPool",
                "label": "CONFIG",
                "offset": 0,
                "slot": "2",
                "type": "t_address"
            },
            {
                "astId": 3003,
                "contract": "contracts/core/CorkPool.sol:CorkPool",
                "label": "__gap",
                "offset": 0,
                "slot": "3",
                "type": "t_array(t_uint256)48_storage"
            }
        ],
        "types": {
            "t_address": {
                "encoding": "inplace",
                "label": "address",
                "numberOfBytes": "20"
            },
            "t_array(t_uint256)48_storage": {
                "encoding": "inplace",
                "label": "uint256[48]",
                "numberOfBytes": "1536",
                "base": "t_uint256"
            },
            "t_bool": {
                "encoding": "inplace",
                "label": "bool",
                "numberOfBytes": "1"
            },
            "t_mapping(t_userDefinedValueType(MarketId)5518,t_struct(State)9209_storage)": {
                "encoding": "mapping",
                "key": "t_userDefinedValueType(MarketId)5518",
                "label": "mapping(MarketId => struct State)",
                "numberOfBytes": "32",
                "value": "t_struct(State)9209_storage"
            },
            "t_struct(Balances)9250_storage": {
                "encoding": "inplace",
                "label": "struct Balances",
                "numberOfBytes": "160",
                "members": [
                    {
                        "astId": 9245,
                        "contract": "contracts/core/CorkPool.sol:CorkPool",
                        "label": "collateralAsset",
                        "offset": 0,
                        "slot": "0",
                        "type": "t_struct(CollateralAssetManager)5197_storage"
                    },
                    {
                        "astId": 9247,
                        "contract": "contracts/core/CorkPool.sol:CorkPool",
                        "label": "swapTokenBalance",
                        "offset": 0,
                        "slot": "3",
                        "type": "t_uint256"
                    },
                    {
                        "astId": 9249,
                        "contract": "contracts/core/CorkPool.sol:CorkPool",
                        "label": "referenceAssetBalance",
                        "offset": 0,
                        "slot": "4",
                        "type": "t_uint256"
                    }
                ]
            },
            "t_struct(CollateralAssetManager)5197_storage": {
                "encoding": "inplace",
                "label": "struct CollateralAssetManager",
                "numberOfBytes": "96",
                "members": [
                    {
                        "astId": 5192,
                        "contract": "contracts/core/CorkPool.sol:CorkPool",
                        "label": "_address",
                        "offset": 0,
                        "slot": "0",
                        "type": "t_address"
                    },
                    {
                        "astId": 5194,
                        "contract": "contracts/core/CorkPool.sol:CorkPool",
                        "label": "locked",
                        "offset": 0,
                        "slot": "1",
                        "type": "t_uint256"
                    },
                    {
                        "astId": 5196,
                        "contract": "contracts/core/CorkPool.sol:CorkPool",
                        "label": "free",
                        "offset": 0,
                        "slot": "2",
                        "type": "t_uint256"
                    }
                ]
            },
            "t_struct(CorkPoolPoolArchive)9241_storage": {
                "encoding": "inplace",
                "label": "struct CorkPoolPoolArchive",
                "numberOfBytes": "96",
                "members": [
                    {
                        "astId": 9236,
                        "contract": "contracts/core/CorkPool.sol:CorkPool",
                        "label": "collateralAssetAccrued",
                        "offset": 0,
                        "slot": "0",
                        "type": "t_uint256"
                    },
                    {
                        "astId": 9238,
                        "contract": "contracts/core/CorkPool.sol:CorkPool",
                        "label": "referenceAssetAccrued",
                        "offset": 0,
                        "slot": "1",
                        "type": "t_uint256"
                    },
                    {
                        "astId": 9240,
                        "contract": "contracts/core/CorkPool.sol:CorkPool",
                        "label": "principalTokenAttributed",
                        "offset": 0,
                        "slot": "2",
                        "type": "t_uint256"
                    }
                ]
            },
            "t_struct(Market)5528_storage": {
                "encoding": "inplace",
                "label": "struct Market",
                "numberOfBytes": "128",
                "members": [
                    {
                        "astId": 5521,
                        "contract": "contracts/core/CorkPool.sol:CorkPool",
                        "label": "referenceAsset",
                        "offset": 0,
                        "slot": "0",
                        "type": "t_address"
                    },
                    {
                        "astId": 5523,
                        "contract": "contracts/core/CorkPool.sol:CorkPool",
                        "label": "collateralAsset",
                        "offset": 0,
                        "slot": "1",
                        "type": "t_address"
                    },
                    {
                        "astId": 5525,
                        "contract": "contracts/core/CorkPool.sol:CorkPool",
                        "label": "expiryTimestamp",
                        "offset": 0,
                        "slot": "2",
                        "type": "t_uint256"
                    },
                    {
                        "astId": 5527,
                        "contract": "contracts/core/CorkPool.sol:CorkPool",
                        "label": "exchangeRateProvider",
                        "offset": 0,
                        "slot": "3",
                        "type": "t_address"
                    }
                ]
            },
            "t_struct(PoolState)9233_storage": {
                "encoding": "inplace",
                "label": "struct PoolState",
                "numberOfBytes": "352",
                "members": [
                    {
                        "astId": 9213,
                        "contract": "contracts/core/CorkPool.sol:CorkPool",
                        "label": "balances",
                        "offset": 0,
                        "slot": "0",
                        "type": "t_struct(Balances)9250_storage"
                    },
                    {
                        "astId": 9215,
                        "contract": "contracts/core/CorkPool.sol:CorkPool",
                        "label": "unwindSwapFeePercentage",
                        "offset": 0,
                        "slot": "5",
                        "type": "t_uint256"
                    },
                    {
                        "astId": 9218,
                        "contract": "contracts/core/CorkPool.sol:CorkPool",
                        "label": "poolArchive",
                        "offset": 0,
                        "slot": "6",
                        "type": "t_struct(CorkPoolPoolArchive)9241_storage"
                    },
                    {
                        "astId": 9220,
                        "contract": "contracts/core/CorkPool.sol:CorkPool",
                        "label": "liquiditySeparated",
                        "offset": 0,
                        "slot": "9",
                        "type": "t_bool"
                    },
                    {
                        "astId": 9222,
                        "contract": "contracts/core/CorkPool.sol:CorkPool",
                        "label": "isDepositPaused",
                        "offset": 1,
                        "slot": "9",
                        "type": "t_bool"
                    },
                    {
                        "astId": 9224,
                        "contract": "contracts/core/CorkPool.sol:CorkPool",
                        "label": "isSwapPaused",
                        "offset": 2,
                        "slot": "9",
                        "type": "t_bool"
                    },
                    {
                        "astId": 9226,
                        "contract": "contracts/core/CorkPool.sol:CorkPool",
                        "label": "isWithdrawalPaused",
                        "offset": 3,
                        "slot": "9",
                        "type": "t_bool"
                    },
                    {
                        "astId": 9228,
                        "contract": "contracts/core/CorkPool.sol:CorkPool",
                        "label": "isReturnPaused",
                        "offset": 4,
                        "slot": "9",
                        "type": "t_bool"
                    },
                    {
                        "astId": 9230,
                        "contract": "contracts/core/CorkPool.sol:CorkPool",
                        "label": "isUnwindSwapPaused",
                        "offset": 5,
                        "slot": "9",
                        "type": "t_bool"
                    },
                    {
                        "astId": 9232,
                        "contract": "contracts/core/CorkPool.sol:CorkPool",
                        "label": "baseRedemptionFeePercentage",
                        "offset": 0,
                        "slot": "10",
                        "type": "t_uint256"
                    }
                ]
            },
            "t_struct(State)9209_storage": {
                "encoding": "inplace",
                "label": "struct State",
                "numberOfBytes": "576",
                "members": [
                    {
                        "astId": 9201,
                        "contract": "contracts/core/CorkPool.sol:CorkPool",
                        "label": "info",
                        "offset": 0,
                        "slot": "0",
                        "type": "t_struct(Market)5528_storage"
                    },
                    {
                        "astId": 9205,
                        "contract": "contracts/core/CorkPool.sol:CorkPool",
                        "label": "swapToken",
                        "offset": 0,
                        "slot": "4",
                        "type": "t_struct(SwapToken)9262_storage"
                    },
                    {
                        "astId": 9208,
                        "contract": "contracts/core/CorkPool.sol:CorkPool",
                        "label": "pool",
                        "offset": 0,
                        "slot": "7",
                        "type": "t_struct(PoolState)9233_storage"
                    }
                ]
            },
            "t_struct(SwapToken)9262_storage": {
                "encoding": "inplace",
                "label": "struct SwapToken",
                "numberOfBytes": "96",
                "members": [
                    {
                        "astId": 9257,
                        "contract": "contracts/core/CorkPool.sol:CorkPool",
                        "label": "_address",
                        "offset": 0,
                        "slot": "0",
                        "type": "t_address"
                    },
                    {
                        "astId": 9259,
                        "contract": "contracts/core/CorkPool.sol:CorkPool",
                        "label": "principalToken",
                        "offset": 0,
                        "slot": "1",
                        "type": "t_address"
                    },
                    {
                        "astId": 9261,
                        "contract": "contracts/core/CorkPool.sol:CorkPool",
                        "label": "withdrawn",
                        "offset": 0,
                        "slot": "2",
                        "type": "t_uint256"
                    }
                ]
            },
            "t_uint256": {
                "encoding": "inplace",
                "label": "uint256",
                "numberOfBytes": "32"
            },
            "t_userDefinedValueType(MarketId)5518": {
                "encoding": "inplace",
                "label": "MarketId",
                "numberOfBytes": "32"
            }
        }
    },
    "id": 1
}