{"abi":[{"type":"constructor","inputs":[{"name":"adminAdd","type":"address","internalType":"address"},{"name":"managerAdd","type":"address","internalType":"address"}],"stateMutability":"nonpayable"},{"type":"function","name":"DEFAULT_ADMIN_ROLE","inputs":[],"outputs":[{"name":"","type":"bytes32","internalType":"bytes32"}],"stateMutability":"view"},{"type":"function","name":"MANAGER_ROLE","inputs":[],"outputs":[{"name":"","type":"bytes32","internalType":"bytes32"}],"stateMutability":"view"},{"type":"function","name":"MARKET_ADMIN_ROLE","inputs":[],"outputs":[{"name":"","type":"bytes32","internalType":"bytes32"}],"stateMutability":"view"},{"type":"function","name":"RATE_UPDATERS_ROLE","inputs":[],"outputs":[{"name":"","type":"bytes32","internalType":"bytes32"}],"stateMutability":"view"},{"type":"function","name":"corkPool","inputs":[],"outputs":[{"name":"","type":"address","internalType":"contract CorkPool"}],"stateMutability":"view"},{"type":"function","name":"createNewMarket","inputs":[{"name":"referenceAsset","type":"address","internalType":"address"},{"name":"collateralAsset","type":"address","internalType":"address"},{"name":"expiryTimestamp","type":"uint256","internalType":"uint256"},{"name":"exchangeRateProvider","type":"address","internalType":"address"}],"outputs":[],"stateMutability":"nonpayable"},{"type":"function","name":"defaultExchangeRateProvider","inputs":[],"outputs":[{"name":"","type":"address","internalType":"contract ExchangeRateProvider"}],"stateMutability":"view"},{"type":"function","name":"getRoleAdmin","inputs":[{"name":"role","type":"bytes32","internalType":"bytes32"}],"outputs":[{"name":"","type":"bytes32","internalType":"bytes32"}],"stateMutability":"view"},{"type":"function","name":"grantRole","inputs":[{"name":"role","type":"bytes32","internalType":"bytes32"},{"name":"account","type":"address","internalType":"address"}],"outputs":[],"stateMutability":"nonpayable"},{"type":"function","name":"hasRole","inputs":[{"name":"role","type":"bytes32","internalType":"bytes32"},{"name":"account","type":"address","internalType":"address"}],"outputs":[{"name":"","type":"bool","internalType":"bool"}],"stateMutability":"view"},{"type":"function","name":"pause","inputs":[],"outputs":[],"stateMutability":"nonpayable"},{"type":"function","name":"pauseDeposits","inputs":[{"name":"id","type":"bytes32","internalType":"MarketId"}],"outputs":[],"stateMutability":"nonpayable"},{"type":"function","name":"pauseSwaps","inputs":[{"name":"id","type":"bytes32","internalType":"MarketId"}],"outputs":[],"stateMutability":"nonpayable"},{"type":"function","name":"pauseUnwindDepositAndMints","inputs":[{"name":"id","type":"bytes32","internalType":"MarketId"}],"outputs":[],"stateMutability":"nonpayable"},{"type":"function","name":"pauseUnwindSwaps","inputs":[{"name":"id","type":"bytes32","internalType":"MarketId"}],"outputs":[],"stateMutability":"nonpayable"},{"type":"function","name":"pauseWithdrawals","inputs":[{"name":"id","type":"bytes32","internalType":"MarketId"}],"outputs":[],"stateMutability":"nonpayable"},{"type":"function","name":"paused","inputs":[],"outputs":[{"name":"","type":"bool","internalType":"bool"}],"stateMutability":"view"},{"type":"function","name":"renounceRole","inputs":[{"name":"role","type":"bytes32","internalType":"bytes32"},{"name":"callerConfirmation","type":"address","internalType":"address"}],"outputs":[],"stateMutability":"nonpayable"},{"type":"function","name":"revokeRole","inputs":[{"name":"role","type":"bytes32","internalType":"bytes32"},{"name":"account","type":"address","internalType":"address"}],"outputs":[],"stateMutability":"nonpayable"},{"type":"function","name":"setCorkPool","inputs":[{"name":"_corkPool","type":"address","internalType":"address"}],"outputs":[],"stateMutability":"nonpayable"},{"type":"function","name":"setRoleAdmin","inputs":[{"name":"role","type":"bytes32","internalType":"bytes32"},{"name":"newAdminRole","type":"bytes32","internalType":"bytes32"}],"outputs":[],"stateMutability":"nonpayable"},{"type":"function","name":"setTreasury","inputs":[{"name":"_treasury","type":"address","internalType":"address"}],"outputs":[],"stateMutability":"nonpayable"},{"type":"function","name":"supportsInterface","inputs":[{"name":"interfaceId","type":"bytes4","internalType":"bytes4"}],"outputs":[{"name":"","type":"bool","internalType":"bool"}],"stateMutability":"view"},{"type":"function","name":"transferAdmin","inputs":[{"name":"newAdmin","type":"address","internalType":"address"}],"outputs":[],"stateMutability":"nonpayable"},{"type":"function","name":"treasury","inputs":[],"outputs":[{"name":"","type":"address","internalType":"address"}],"stateMutability":"view"},{"type":"function","name":"unpause","inputs":[],"outputs":[],"stateMutability":"nonpayable"},{"type":"function","name":"unpauseDeposits","inputs":[{"name":"id","type":"bytes32","internalType":"MarketId"}],"outputs":[],"stateMutability":"nonpayable"},{"type":"function","name":"unpauseSwaps","inputs":[{"name":"id","type":"bytes32","internalType":"MarketId"}],"outputs":[],"stateMutability":"nonpayable"},{"type":"function","name":"unpauseUnwindDepositAndMints","inputs":[{"name":"id","type":"bytes32","internalType":"MarketId"}],"outputs":[],"stateMutability":"nonpayable"},{"type":"function","name":"unpauseUnwindSwaps","inputs":[{"name":"id","type":"bytes32","internalType":"MarketId"}],"outputs":[],"stateMutability":"nonpayable"},{"type":"function","name":"unpauseWithdrawals","inputs":[{"name":"id","type":"bytes32","internalType":"MarketId"}],"outputs":[],"stateMutability":"nonpayable"},{"type":"function","name":"updateBaseRedemptionFeePercentage","inputs":[{"name":"id","type":"bytes32","internalType":"MarketId"},{"name":"newBaseRedemptionFeePercentage","type":"uint256","internalType":"uint256"}],"outputs":[],"stateMutability":"nonpayable"},{"type":"function","name":"updateCorkPoolRate","inputs":[{"name":"id","type":"bytes32","internalType":"MarketId"},{"name":"newRate","type":"uint256","internalType":"uint256"}],"outputs":[],"stateMutability":"nonpayable"},{"type":"function","name":"updateUnwindSwapFeeRate","inputs":[{"name":"id","type":"bytes32","internalType":"MarketId"},{"name":"newUnwindSwapFeePercentage","type":"uint256","internalType":"uint256"}],"outputs":[],"stateMutability":"nonpayable"},{"type":"event","name":"CorkPoolSet","inputs":[{"name":"corkPool","type":"address","indexed":false,"internalType":"address"}],"anonymous":false},{"type":"event","name":"Paused","inputs":[{"name":"account","type":"address","indexed":false,"internalType":"address"}],"anonymous":false},{"type":"event","name":"RoleAdminChanged","inputs":[{"name":"role","type":"bytes32","indexed":true,"internalType":"bytes32"},{"name":"previousAdminRole","type":"bytes32","indexed":true,"internalType":"bytes32"},{"name":"newAdminRole","type":"bytes32","indexed":true,"internalType":"bytes32"}],"anonymous":false},{"type":"event","name":"RoleGranted","inputs":[{"name":"role","type":"bytes32","indexed":true,"internalType":"bytes32"},{"name":"account","type":"address","indexed":true,"internalType":"address"},{"name":"sender","type":"address","indexed":true,"internalType":"address"}],"anonymous":false},{"type":"event","name":"RoleRevoked","inputs":[{"name":"role","type":"bytes32","indexed":true,"internalType":"bytes32"},{"name":"account","type":"address","indexed":true,"internalType":"address"},{"name":"sender","type":"address","indexed":true,"internalType":"address"}],"anonymous":false},{"type":"event","name":"TreasurySet","inputs":[{"name":"treasury","type":"address","indexed":false,"internalType":"address"}],"anonymous":false},{"type":"event","name":"Unpaused","inputs":[{"name":"account","type":"address","indexed":false,"internalType":"address"}],"anonymous":false},{"type":"error","name":"AccessControlBadConfirmation","inputs":[]},{"type":"error","name":"AccessControlUnauthorizedAccount","inputs":[{"name":"account","type":"address","internalType":"address"},{"name":"neededRole","type":"bytes32","internalType":"bytes32"}]},{"type":"error","name":"CallerNotManager","inputs":[]},{"type":"error","name":"CallerNotMarketAdmin","inputs":[]},{"type":"error","name":"EnforcedPause","inputs":[]},{"type":"error","name":"ExpectedPause","inputs":[]},{"type":"error","name":"InvalidAddress","inputs":[]},{"type":"error","name":"InvalidAdminRole","inputs":[]},{"type":"error","name":"InvalidRole","inputs":[]}],"bytecode":{"object":"0x608060405234801561000f575f5ffd5b5060405161190738038061190783398101604081905261002e91610299565b6001805460ff191690556001600160a01b038216158061005557506001600160a01b038116155b156100735760405163e6c4247b60e01b815260040160405180910390fd5b3060405161008090610271565b6001600160a01b039091168152602001604051809103905ff0801580156100a9573d5f5f3e3d5ffd5b50600280546001600160a01b0319166001600160a01b03929092169190911790556100e15f5160206118e75f395f51905f525f61017e565b6101187fe2e2eab6af903f0fb3a985743731167e1b5513a8beed59637f7d7d1e29c7c69f5f5160206118e75f395f51905f5261017e565b61013c5f5160206118c75f395f51905f525f5160206118e75f395f51905f5261017e565b6101465f836101c8565b5061015e5f5160206118e75f395f51905f52826101c8565b506101765f5160206118c75f395f51905f52826101c8565b5050506102ca565b5f82815260208190526040808220600101805490849055905190918391839186917fbd79b86ffe0ab8e8776151514217cd7cacd52c909f66475c3af44e129f0b00ff9190a4505050565b5f828152602081815260408083206001600160a01b038516845290915281205460ff16610268575f838152602081815260408083206001600160a01b03861684529091529020805460ff191660011790556102203390565b6001600160a01b0316826001600160a01b0316847f2f8788117e7eff1d82e926ec794901d17c78024a50270940304540a733656f0d60405160405180910390a450600161026b565b505f5b92915050565b6102888061163f83390190565b80516001600160a01b0381168114610294575f5ffd5b919050565b5f5f604083850312156102aa575f5ffd5b6102b38361027e565b91506102c16020840161027e565b90509250929050565b611368806102d75f395ff3fe608060405234801561000f575f5ffd5b50600436106101fd575f3560e01c806391d1485411610114578063d14305b3116100a9578063e6ff515f11610079578063e6ff515f14610477578063e8a8460b1461048a578063ec87621c1461049d578063f0f44260146104b1578063f1a6a77e146104c4575f5ffd5b8063d14305b314610412578063d547741f1461042a578063d6f0d39f1461043d578063e6bf889614610464575f5ffd5b8063a217fddf116100e4578063a217fddf146103d2578063b3c17d12146103d9578063c4a68111146103ec578063cf7ba845146103ff575f5ffd5b806391d14854146103865780639baab87a146103995780639d24840b146103ac578063a1ad84c5146103bf575f5ffd5b80633f4ba83a1161019557806361d027b31161016557806361d027b31461031a5780636923660a146103455780636f1ab80b1461035857806375829def1461036b5780638456cb591461037e575f5ffd5b80633f4ba83a146102e157806348920473146102e95780635c975abb146102fc5780635d7a768514610307575f5ffd5b8063248a9ca3116101d0578063248a9ca3146102865780632f2ff15d146102a857806336568abe146102bb5780633eaa1c93146102ce575f5ffd5b806301ffc9a7146102015780631e4e0091146102295780631fd536001461023e5780632367109a14610251575b5f5ffd5b61021461020f3660046111cc565b6104d7565b60405190151581526020015b60405180910390f35b61023c6102373660046111fa565b61050d565b005b61023c61024c36600461121a565b610566565b6102787fe2e2eab6af903f0fb3a985743731167e1b5513a8beed59637f7d7d1e29c7c69f81565b604051908152602001610220565b61027861029436600461121a565b5f9081526020819052604090206001015490565b61023c6102b636600461124c565b610603565b61023c6102c936600461124c565b610669565b61023c6102dc36600461121a565b61069c565b61023c610708565b61023c6102f7366004611276565b610746565b60015460ff16610214565b61023c6103153660046111fa565b6107fe565b60035461032d906001600160a01b031681565b6040516001600160a01b039091168152602001610220565b61023c61035336600461121a565b6108cc565b61023c61036636600461121a565b610937565b61023c610379366004611276565b6109a3565b61023c6109fb565b61021461039436600461124c565b610a37565b61023c6103a736600461121a565b610a5f565b60025461032d906001600160a01b031681565b61023c6103cd36600461121a565b610acc565b6102785f81565b61023c6103e73660046111fa565b610b39565b61023c6103fa36600461128f565b610ba9565b61023c61040d3660046111fa565b610c75565b60015461032d9061010090046001600160a01b031681565b61023c61043836600461124c565b610ce5565b6102787f07f0a275418c306f0387154a78b34319faf760726ea38247d69f21825e8947a681565b61023c61047236600461121a565b610d0f565b61023c61048536600461121a565b610d7a565b61023c61049836600461121a565b610de6565b6102785f5160206113135f395f51905f5281565b61023c6104bf366004611276565b610e52565b61023c6104d236600461121a565b610efb565b5f6001600160e01b03198216637965db0b60e01b148061050757506301ffc9a760e01b6001600160e01b03198316145b92915050565b5f8281526020819052604090206001015461052781610f68565b5f83815260208190526040902060010154820361055757604051632d4d7bb360e01b815260040160405180910390fd5b6105618383610f75565b505050565b61057d5f5160206113135f395f51905f5233610a37565b61059a5760405163c4230ae360e01b815260040160405180910390fd5b60015460405163c923602360e01b81526101009091046001600160a01b03169063c9236023906105d39084906003905f906004016112d9565b5f604051808303815f87803b1580156105ea575f5ffd5b505af11580156105fc573d5f5f3e3d5ffd5b5050505050565b61061a5f5160206113135f395f51905f5233610a37565b6106375760405163c4230ae360e01b815260040160405180910390fd5b6106418282610a37565b1561065f57604051636caa20b560e11b815260040160405180910390fd5b6105618282610fbf565b6001600160a01b03811633146106925760405163334bd91960e11b815260040160405180910390fd5b610561828261104e565b6106b35f5160206113135f395f51905f5233610a37565b6106d05760405163c4230ae360e01b815260040160405180910390fd5b6001805460405163c923602360e01b81526101009091046001600160a01b03169163c9236023916105d39185916004919082016112d9565b61071f5f5160206113135f395f51905f5233610a37565b61073c5760405163c4230ae360e01b815260040160405180910390fd5b6107446110b7565b565b61075d5f5160206113135f395f51905f5233610a37565b61077a5760405163c4230ae360e01b815260040160405180910390fd5b6001600160a01b0381166107a15760405163e6c4247b60e01b815260040160405180910390fd5b60018054610100600160a81b0319166101006001600160a01b038416908102919091179091556040519081527f72254dfff67d7aa7f0ed20b3b7eacec1eee2041bcccc5e2deb5848f40beed83d906020015b60405180910390a150565b6108287fe2e2eab6af903f0fb3a985743731167e1b5513a8beed59637f7d7d1e29c7c69f33610a37565b15801561084957506108475f5160206113135f395f51905f5233610a37565b155b156108675760405163c4230ae360e01b815260040160405180910390fd5b60025460405163680819eb60e01b815260048101849052602481018390526001600160a01b039091169063680819eb906044015b5f604051808303815f87803b1580156108b2575f5ffd5b505af11580156108c4573d5f5f3e3d5ffd5b505050505050565b6108e35f5160206113135f395f51905f5233610a37565b6109005760405163c4230ae360e01b815260040160405180910390fd5b6001805460405163c923602360e01b81526101009091046001600160a01b03169163c9236023916105d391859181906004016112d9565b61094e5f5160206113135f395f51905f5233610a37565b61096b5760405163c4230ae360e01b815260040160405180910390fd5b60015460405163c923602360e01b81526101009091046001600160a01b03169063c9236023906105d39084905f9081906004016112d9565b5f6109ad81610f68565b6001600160a01b03821615806109c857506109c85f83610a37565b156109e65760405163e6c4247b60e01b815260040160405180910390fd5b6109f05f3361104e565b506105615f83610fbf565b610a125f5160206113135f395f51905f5233610a37565b610a2f5760405163c4230ae360e01b815260040160405180910390fd5b610744611109565b5f918252602082815260408084206001600160a01b0393909316845291905290205460ff1690565b610a765f5160206113135f395f51905f5233610a37565b610a935760405163c4230ae360e01b815260040160405180910390fd5b6001805460405163c923602360e01b81526101009091046001600160a01b03169163c9236023916105d3918591600291906004016112d9565b610ae35f5160206113135f395f51905f5233610a37565b610b005760405163c4230ae360e01b815260040160405180910390fd5b60015460405163c923602360e01b81526101009091046001600160a01b03169063c9236023906105d39084906002905f906004016112d9565b610b505f5160206113135f395f51905f5233610a37565b610b6d5760405163c4230ae360e01b815260040160405180910390fd5b6001546040516359e0be8960e11b815260048101849052602481018390526101009091046001600160a01b03169063b3c17d129060440161089b565b610bb1611144565b610bdb7f07f0a275418c306f0387154a78b34319faf760726ea38247d69f21825e8947a633610a37565b610bf8576040516333bd73c360e01b815260040160405180910390fd5b60015460405163c4a6811160e01b81526001600160a01b03868116600483015285811660248301526044820185905283811660648301526101009092049091169063c4a68111906084015f604051808303815f87803b158015610c59575f5ffd5b505af1158015610c6b573d5f5f3e3d5ffd5b5050505050505050565b610c8c5f5160206113135f395f51905f5233610a37565b610ca95760405163c4230ae360e01b815260040160405180910390fd5b60015460405163cf7ba84560e01b815260048101849052602481018390526101009091046001600160a01b03169063cf7ba8459060440161089b565b5f82815260208190526040902060010154610cff81610f68565b610d09838361104e565b50505050565b610d265f5160206113135f395f51905f5233610a37565b610d435760405163c4230ae360e01b815260040160405180910390fd5b6001805460405163c923602360e01b81526101009091046001600160a01b03169163c9236023916105d39185915f906004016112d9565b610d915f5160206113135f395f51905f5233610a37565b610dae5760405163c4230ae360e01b815260040160405180910390fd5b60015460405163c923602360e01b81526101009091046001600160a01b03169063c9236023906105d39084906004905f9082016112d9565b610dfd5f5160206113135f395f51905f5233610a37565b610e1a5760405163c4230ae360e01b815260040160405180910390fd5b6001805460405163c923602360e01b81526101009091046001600160a01b03169163c9236023916105d39185915f91906004016112d9565b610e695f5160206113135f395f51905f5233610a37565b610e865760405163c4230ae360e01b815260040160405180910390fd5b6001600160a01b038116610ead5760405163e6c4247b60e01b815260040160405180910390fd5b600380546001600160a01b0319166001600160a01b0383169081179091556040519081527f3c864541ef71378c6229510ed90f376565ee42d9c5e0904a984a9e863e6db44f906020016107f3565b610f125f5160206113135f395f51905f5233610a37565b610f2f5760405163c4230ae360e01b815260040160405180910390fd5b6001805460405163c923602360e01b81526101009091046001600160a01b03169163c9236023916105d3918591600391906004016112d9565b610f728133611168565b50565b5f82815260208190526040808220600101805490849055905190918391839186917fbd79b86ffe0ab8e8776151514217cd7cacd52c909f66475c3af44e129f0b00ff9190a4505050565b5f610fca8383610a37565b611047575f838152602081815260408083206001600160a01b03861684529091529020805460ff19166001179055610fff3390565b6001600160a01b0316826001600160a01b0316847f2f8788117e7eff1d82e926ec794901d17c78024a50270940304540a733656f0d60405160405180910390a4506001610507565b505f610507565b5f6110598383610a37565b15611047575f838152602081815260408083206001600160a01b0386168085529252808320805460ff1916905551339286917ff6391f5c32d9c69d2a47ea670b442974b53935d1edc7fd64eb21e047a839171b9190a4506001610507565b6110bf6111a9565b6001805460ff191690557f5db9ee0a495bf2e6ff9c91a7834c1ba4fdd244a5e8aa4e537bd38aeae4b073aa335b6040516001600160a01b03909116815260200160405180910390a1565b611111611144565b6001805460ff1916811790557f62e78cea01bee320cd4e420270b5ea74000d11b0c9f74754ebdbfc544b05a258336110ec565b60015460ff16156107445760405163d93c066560e01b815260040160405180910390fd5b6111728282610a37565b6111a55760405163e2517d3f60e01b81526001600160a01b03821660048201526024810183905260440160405180910390fd5b5050565b60015460ff1661074457604051638dfc202b60e01b815260040160405180910390fd5b5f602082840312156111dc575f5ffd5b81356001600160e01b0319811681146111f3575f5ffd5b9392505050565b5f5f6040838503121561120b575f5ffd5b50508035926020909101359150565b5f6020828403121561122a575f5ffd5b5035919050565b80356001600160a01b0381168114611247575f5ffd5b919050565b5f5f6040838503121561125d575f5ffd5b8235915061126d60208401611231565b90509250929050565b5f60208284031215611286575f5ffd5b6111f382611231565b5f5f5f5f608085870312156112a2575f5ffd5b6112ab85611231565b93506112b960208601611231565b9250604085013591506112ce60608601611231565b905092959194509250565b83815260608101600584106112fc57634e487b7160e01b5f52602160045260245ffd5b836020830152821515604083015294935050505056fe241ecf16d79d0f8dbfb92cbc07fe17840425976cf0667f022fe9877caa831b08a2646970667358221220da58381cdda23420ad4e89fc9cca4c175d69409255793596e45f287aa26b421d64736f6c634300081e003360a0604052348015600e575f5ffd5b50604051610288380380610288833981016040819052602b916061565b6001600160a01b03811660515760405163d92e233d60e01b815260040160405180910390fd5b6001600160a01b0316608052608c565b5f602082840312156070575f5ffd5b81516001600160a01b03811681146085575f5ffd5b9392505050565b6080516101de6100aa5f395f8181607d015261013101526101de5ff3fe608060405234801561000f575f5ffd5b506004361061004a575f3560e01c80632c4e722e1461004e578063680819eb14610063578063d92e82e414610078578063ee207024146100b7575b5f5ffd5b5f5b6040519081526020015b60405180910390f35b610076610071366004610171565b6100d6565b005b61009f7f000000000000000000000000000000000000000000000000000000000000000081565b6040516001600160a01b03909116815260200161005a565b6100506100c5366004610191565b5f9081526020819052604090205490565b6100de610126565b5f8281526020818152604091829020839055905182815283917f1b94ba2fb689180842bb322b39eee23e7e60e3a5b98bacdacead4d16b951f63c910160405180910390a25050565b336001600160a01b037f0000000000000000000000000000000000000000000000000000000000000000161461016f576040516354682c0160e01b815260040160405180910390fd5b565b5f5f60408385031215610182575f5ffd5b50508035926020909101359150565b5f602082840312156101a1575f5ffd5b503591905056fea26469706673582212202f5a9850062ea620e1f98863836bd900af9315bf99315a5fd29a48e25705d45d64736f6c634300081e003307f0a275418c306f0387154a78b34319faf760726ea38247d69f21825e8947a6241ecf16d79d0f8dbfb92cbc07fe17840425976cf0667f022fe9877caa831b08","linkReferences":{}},"methodIdentifiers":{"DEFAULT_ADMIN_ROLE()":"a217fddf","MANAGER_ROLE()":"ec87621c","MARKET_ADMIN_ROLE()":"d6f0d39f","RATE_UPDATERS_ROLE()":"2367109a","corkPool()":"d14305b3","createNewMarket(address,address,uint256,address)":"c4a68111","defaultExchangeRateProvider()":"9d24840b","getRoleAdmin(bytes32)":"248a9ca3","grantRole(bytes32,address)":"2f2ff15d","hasRole(bytes32,address)":"91d14854","pause()":"8456cb59","pauseDeposits(bytes32)":"e8a8460b","pauseSwaps(bytes32)":"9baab87a","pauseUnwindDepositAndMints(bytes32)":"3eaa1c93","pauseUnwindSwaps(bytes32)":"6923660a","pauseWithdrawals(bytes32)":"f1a6a77e","paused()":"5c975abb","renounceRole(bytes32,address)":"36568abe","revokeRole(bytes32,address)":"d547741f","setCorkPool(address)":"48920473","setRoleAdmin(bytes32,bytes32)":"1e4e0091","setTreasury(address)":"f0f44260","supportsInterface(bytes4)":"01ffc9a7","transferAdmin(address)":"75829def","treasury()":"61d027b3","unpause()":"3f4ba83a","unpauseDeposits(bytes32)":"6f1ab80b","unpauseSwaps(bytes32)":"a1ad84c5","unpauseUnwindDepositAndMints(bytes32)":"e6ff515f","unpauseUnwindSwaps(bytes32)":"e6bf8896","unpauseWithdrawals(bytes32)":"1fd53600","updateBaseRedemptionFeePercentage(bytes32,uint256)":"cf7ba845","updateCorkPoolRate(bytes32,uint256)":"5d7a7685","updateUnwindSwapFeeRate(bytes32,uint256)":"b3c17d12"},"storageLayout":{"storage":[{"astId":52269,"contract":"contracts/core/CorkConfig.sol:CorkConfig","label":"_roles","offset":0,"slot":"0","type":"t_mapping(t_bytes32,t_struct(RoleData)52264_storage)"},{"astId":55138,"contract":"contracts/core/CorkConfig.sol:CorkConfig","label":"_paused","offset":0,"slot":"1","type":"t_bool"},{"astId":40,"contract":"contracts/core/CorkConfig.sol:CorkConfig","label":"corkPool","offset":1,"slot":"1","type":"t_contract(CorkPool)2943"},{"astId":43,"contract":"contracts/core/CorkConfig.sol:CorkConfig","label":"defaultExchangeRateProvider","offset":0,"slot":"2","type":"t_contract(ExchangeRateProvider)3048"},{"astId":45,"contract":"contracts/core/CorkConfig.sol:CorkConfig","label":"treasury","offset":0,"slot":"3","type":"t_address"}],"types":{"t_address":{"encoding":"inplace","label":"address","numberOfBytes":"20"},"t_bool":{"encoding":"inplace","label":"bool","numberOfBytes":"1"},"t_bytes32":{"encoding":"inplace","label":"bytes32","numberOfBytes":"32"},"t_contract(CorkPool)2943":{"encoding":"inplace","label":"contract CorkPool","numberOfBytes":"20"},"t_contract(ExchangeRateProvider)3048":{"encoding":"inplace","label":"contract ExchangeRateProvider","numberOfBytes":"20"},"t_mapping(t_address,t_bool)":{"encoding":"mapping","key":"t_address","label":"mapping(address => bool)","numberOfBytes":"32","value":"t_bool"},"t_mapping(t_bytes32,t_struct(RoleData)52264_storage)":{"encoding":"mapping","key":"t_bytes32","label":"mapping(bytes32 => struct AccessControl.RoleData)","numberOfBytes":"32","value":"t_struct(RoleData)52264_storage"},"t_struct(RoleData)52264_storage":{"encoding":"inplace","label":"struct AccessControl.RoleData","numberOfBytes":"64","members":[{"astId":52261,"contract":"contracts/core/CorkConfig.sol:CorkConfig","label":"hasRole","offset":0,"slot":"0","type":"t_mapping(t_address,t_bool)"},{"astId":52263,"contract":"contracts/core/CorkConfig.sol:CorkConfig","label":"adminRole","offset":0,"slot":"1","type":"t_bytes32"}]}}},"id":0}