{"abi":[{"type":"constructor","inputs":[{"name":"_config","type":"address","internalType":"address"}],"stateMutability":"nonpayable"},{"type":"function","name":"CONFIG","inputs":[],"outputs":[{"name":"","type":"address","internalType":"address"}],"stateMutability":"view"},{"type":"function","name":"rate","inputs":[],"outputs":[{"name":"_rate","type":"uint256","internalType":"uint256"}],"stateMutability":"view"},{"type":"function","name":"rate","inputs":[{"name":"id","type":"bytes32","internalType":"MarketId"}],"outputs":[{"name":"_rate","type":"uint256","internalType":"uint256"}],"stateMutability":"view"},{"type":"function","name":"setRate","inputs":[{"name":"id","type":"bytes32","internalType":"MarketId"},{"name":"newRate","type":"uint256","internalType":"uint256"}],"outputs":[],"stateMutability":"nonpayable"},{"type":"event","name":"RateUpdated","inputs":[{"name":"id","type":"bytes32","indexed":true,"internalType":"MarketId"},{"name":"newRate","type":"uint256","indexed":false,"internalType":"uint256"}],"anonymous":false},{"type":"error","name":"AlreadyInitialized","inputs":[]},{"type":"error","name":"ExcessiveInput","inputs":[{"name":"inputAmount","type":"uint256","internalType":"uint256"},{"name":"maxAllowed","type":"uint256","internalType":"uint256"}]},{"type":"error","name":"Expired","inputs":[]},{"type":"error","name":"InsufficientLiquidity","inputs":[{"name":"available","type":"uint256","internalType":"uint256"},{"name":"requested","type":"uint256","internalType":"uint256"}]},{"type":"error","name":"InsufficientOutputAmount","inputs":[{"name":"amountOutMin","type":"uint256","internalType":"uint256"},{"name":"received","type":"uint256","internalType":"uint256"}]},{"type":"error","name":"InvalidAddress","inputs":[]},{"type":"error","name":"InvalidAmount","inputs":[]},{"type":"error","name":"InvalidExpiry","inputs":[]},{"type":"error","name":"InvalidFees","inputs":[]},{"type":"error","name":"InvalidParams","inputs":[]},{"type":"error","name":"InvalidRate","inputs":[]},{"type":"error","name":"NotCorkPool","inputs":[]},{"type":"error","name":"NotExpired","inputs":[]},{"type":"error","name":"NotInitialized","inputs":[]},{"type":"error","name":"OnlyConfigAllowed","inputs":[]},{"type":"error","name":"Paused","inputs":[]},{"type":"error","name":"SameStatus","inputs":[]},{"type":"error","name":"Uninitialized","inputs":[]},{"type":"error","name":"ZeroAddress","inputs":[]},{"type":"error","name":"ZeroDeposit","inputs":[]}],"bytecode":{"object":"0x60a0604052348015600e575f5ffd5b50604051610288380380610288833981016040819052602b916061565b6001600160a01b03811660515760405163d92e233d60e01b815260040160405180910390fd5b6001600160a01b0316608052608c565b5f602082840312156070575f5ffd5b81516001600160a01b03811681146085575f5ffd5b9392505050565b6080516101de6100aa5f395f8181607d015261013101526101de5ff3fe608060405234801561000f575f5ffd5b506004361061004a575f3560e01c80632c4e722e1461004e578063680819eb14610063578063d92e82e414610078578063ee207024146100b7575b5f5ffd5b5f5b6040519081526020015b60405180910390f35b610076610071366004610171565b6100d6565b005b61009f7f000000000000000000000000000000000000000000000000000000000000000081565b6040516001600160a01b03909116815260200161005a565b6100506100c5366004610191565b5f9081526020819052604090205490565b6100de610126565b5f8281526020818152604091829020839055905182815283917f1b94ba2fb689180842bb322b39eee23e7e60e3a5b98bacdacead4d16b951f63c910160405180910390a25050565b336001600160a01b037f0000000000000000000000000000000000000000000000000000000000000000161461016f576040516354682c0160e01b815260040160405180910390fd5b565b5f5f60408385031215610182575f5ffd5b50508035926020909101359150565b5f602082840312156101a1575f5ffd5b503591905056fea26469706673582212202f5a9850062ea620e1f98863836bd900af9315bf99315a5fd29a48e25705d45d64736f6c634300081e0033","linkReferences":{}},"methodIdentifiers":{"CONFIG()":"d92e82e4","rate()":"2c4e722e","rate(bytes32)":"ee207024","setRate(bytes32,uint256)":"680819eb"},"storageLayout":{"storage":[{"astId":2963,"contract":"contracts/core/ExchangeRateProvider.sol:ExchangeRateProvider","label":"exchangeRate","offset":0,"slot":"0","type":"t_mapping(t_userDefinedValueType(MarketId)5754,t_uint256)"}],"types":{"t_mapping(t_userDefinedValueType(MarketId)5754,t_uint256)":{"encoding":"mapping","key":"t_userDefinedValueType(MarketId)5754","label":"mapping(MarketId => uint256)","numberOfBytes":"32","value":"t_uint256"},"t_uint256":{"encoding":"inplace","label":"uint256","numberOfBytes":"32"},"t_userDefinedValueType(MarketId)5754":{"encoding":"inplace","label":"MarketId","numberOfBytes":"32"}}},"id":2}