{"abi":[{"type":"constructor","inputs":[],"stateMutability":"nonpayable"},{"type":"function","name":"UPGRADE_INTERFACE_VERSION","inputs":[],"outputs":[{"name":"","type":"string","internalType":"string"}],"stateMutability":"view"},{"type":"function","name":"corkPool","inputs":[],"outputs":[{"name":"","type":"address","internalType":"address"}],"stateMutability":"view"},{"type":"function","name":"deploySwapShares","inputs":[{"name":"params","type":"tuple","internalType":"struct ISharesFactory.DeployParams","components":[{"name":"_collateralAsset","type":"address","internalType":"address"},{"name":"_referenceAsset","type":"address","internalType":"address"},{"name":"_owner","type":"address","internalType":"address"},{"name":"expiryTimestamp","type":"uint256","internalType":"uint256"},{"name":"exchangeRateProvider","type":"address","internalType":"address"},{"name":"exchangeRate","type":"uint256","internalType":"uint256"}]}],"outputs":[{"name":"principalToken","type":"address","internalType":"address"},{"name":"swapToken","type":"address","internalType":"address"}],"stateMutability":"nonpayable"},{"type":"function","name":"getDeployedSwapShares","inputs":[{"name":"_collateralAsset","type":"address","internalType":"address"},{"name":"_referenceAsset","type":"address","internalType":"address"},{"name":"_expiryTimestamp","type":"uint256","internalType":"uint256"},{"name":"_exchangeRateProvider","type":"address","internalType":"address"}],"outputs":[{"name":"principalToken","type":"address","internalType":"address"},{"name":"swapToken","type":"address","internalType":"address"}],"stateMutability":"view"},{"type":"function","name":"initialize","inputs":[],"outputs":[],"stateMutability":"nonpayable"},{"type":"function","name":"isDeployed","inputs":[{"name":"share","type":"address","internalType":"address"}],"outputs":[{"name":"","type":"bool","internalType":"bool"}],"stateMutability":"view"},{"type":"function","name":"owner","inputs":[],"outputs":[{"name":"","type":"address","internalType":"address"}],"stateMutability":"view"},{"type":"function","name":"proxiableUUID","inputs":[],"outputs":[{"name":"","type":"bytes32","internalType":"bytes32"}],"stateMutability":"view"},{"type":"function","name":"renounceOwnership","inputs":[],"outputs":[],"stateMutability":"nonpayable"},{"type":"function","name":"setCorkPool","inputs":[{"name":"_corkPool","type":"address","internalType":"address"}],"outputs":[],"stateMutability":"nonpayable"},{"type":"function","name":"transferOwnership","inputs":[{"name":"newOwner","type":"address","internalType":"address"}],"outputs":[],"stateMutability":"nonpayable"},{"type":"function","name":"upgradeToAndCall","inputs":[{"name":"newImplementation","type":"address","internalType":"address"},{"name":"data","type":"bytes","internalType":"bytes"}],"outputs":[],"stateMutability":"payable"},{"type":"event","name":"CorkPoolChanged","inputs":[{"name":"oldCorkPool","type":"address","indexed":true,"internalType":"address"},{"name":"newCorkPool","type":"address","indexed":true,"internalType":"address"}],"anonymous":false},{"type":"event","name":"Initialized","inputs":[{"name":"version","type":"uint64","indexed":false,"internalType":"uint64"}],"anonymous":false},{"type":"event","name":"OwnershipTransferred","inputs":[{"name":"previousOwner","type":"address","indexed":true,"internalType":"address"},{"name":"newOwner","type":"address","indexed":true,"internalType":"address"}],"anonymous":false},{"type":"event","name":"SharesDeployed","inputs":[{"name":"collateralAsset","type":"address","indexed":true,"internalType":"address"},{"name":"principalToken","type":"address","indexed":true,"internalType":"address"},{"name":"swapToken","type":"address","indexed":true,"internalType":"address"}],"anonymous":false},{"type":"event","name":"Upgraded","inputs":[{"name":"implementation","type":"address","indexed":true,"internalType":"address"}],"anonymous":false},{"type":"error","name":"AddressEmptyCode","inputs":[{"name":"target","type":"address","internalType":"address"}]},{"type":"error","name":"AlreadyInitialized","inputs":[]},{"type":"error","name":"ERC1967InvalidImplementation","inputs":[{"name":"implementation","type":"address","internalType":"address"}]},{"type":"error","name":"ERC1967NonPayable","inputs":[]},{"type":"error","name":"ExcessiveInput","inputs":[{"name":"inputAmount","type":"uint256","internalType":"uint256"},{"name":"maxAllowed","type":"uint256","internalType":"uint256"}]},{"type":"error","name":"Expired","inputs":[]},{"type":"error","name":"FailedCall","inputs":[]},{"type":"error","name":"InsufficientLiquidity","inputs":[{"name":"available","type":"uint256","internalType":"uint256"},{"name":"requested","type":"uint256","internalType":"uint256"}]},{"type":"error","name":"InsufficientOutputAmount","inputs":[{"name":"amountOutMin","type":"uint256","internalType":"uint256"},{"name":"received","type":"uint256","internalType":"uint256"}]},{"type":"error","name":"InvalidAddress","inputs":[]},{"type":"error","name":"InvalidAmount","inputs":[]},{"type":"error","name":"InvalidExpiry","inputs":[]},{"type":"error","name":"InvalidFees","inputs":[]},{"type":"error","name":"InvalidInitialization","inputs":[]},{"type":"error","name":"InvalidParams","inputs":[]},{"type":"error","name":"InvalidRate","inputs":[]},{"type":"error","name":"NotCorkPool","inputs":[]},{"type":"error","name":"NotExpired","inputs":[]},{"type":"error","name":"NotInitialized","inputs":[]},{"type":"error","name":"NotInitializing","inputs":[]},{"type":"error","name":"OnlyConfigAllowed","inputs":[]},{"type":"error","name":"OwnableInvalidOwner","inputs":[{"name":"owner","type":"address","internalType":"address"}]},{"type":"error","name":"OwnableUnauthorizedAccount","inputs":[{"name":"account","type":"address","internalType":"address"}]},{"type":"error","name":"Paused","inputs":[]},{"type":"error","name":"SameStatus","inputs":[]},{"type":"error","name":"UUPSUnauthorizedCallContext","inputs":[]},{"type":"error","name":"UUPSUnsupportedProxiableUUID","inputs":[{"name":"slot","type":"bytes32","internalType":"bytes32"}]},{"type":"error","name":"Uninitialized","inputs":[]},{"type":"error","name":"ZeroAddress","inputs":[]},{"type":"error","name":"ZeroDeposit","inputs":[]}],"bytecode":{"object":"0x60a060405230608052348015610013575f5ffd5b5061001c610021565b6100d3565b7ff0c57e16840df040f15088dc2f81fe391c3923bec73e23a9662efc9c229c6a00805468010000000000000000900460ff16156100715760405163f92ee8a960e01b815260040160405180910390fd5b80546001600160401b03908116146100d05780546001600160401b0319166001600160401b0390811782556040519081527fc7f505b2f371ae2175ee4913f4499e1f2633a7b5936321eed1cdaeb6115181d29060200160405180910390a15b50565b6080516132e96100f95f395f8181610a0801528181610a310152610b7501526132e95ff3fe6080604052600436106100a5575f3560e01c80638da5cb5b116100625780638da5cb5b1461016b57806390184b02146101bb578063ad3cb1cc14610202578063d14305b31461023f578063ec8fe9f31461025d578063f2fde38b1461027c575f5ffd5b806320d77a5c146100a957806348920473146100ed5780634f1ef2861461010e57806352d1902d14610121578063715018a6146101435780638129fc1c14610157575b5f5ffd5b3480156100b4575f5ffd5b506100c86100c3366004611226565b61029b565b604080516001600160a01b039384168152929091166020830152015b60405180910390f35b3480156100f8575f5ffd5b5061010c610107366004611270565b61032b565b005b61010c61011c3660046112f5565b6103a9565b34801561012c575f5ffd5b506101356103c8565b6040519081526020016100e4565b34801561014e575f5ffd5b5061010c6103e3565b348015610162575f5ffd5b5061010c6103f6565b348015610176575f5ffd5b507f9016d09d72d40fdae2fd8ceac6b6234c7706214fd39c1cd1e609a0528c199300546001600160a01b03165b6040516001600160a01b0390911681526020016100e4565b3480156101c6575f5ffd5b506101f26101d5366004611270565b6001600160a01b03165f9081526002602052604090205460ff1690565b60405190151581526020016100e4565b34801561020d575f5ffd5b50610232604051806040016040528060058152602001640352e302e360dc1b81525081565b6040516100e491906113ae565b34801561024a575f5ffd5b505f546101a3906001600160a01b031681565b348015610268575f5ffd5b506100c86102773660046113c0565b61050b565b348015610287575f5ffd5b5061010c610296366004611270565b6108fd565b5f5f5f60015f6102e560405180608001604052808a6001600160a01b031681526020018b6001600160a01b03168152602001898152602001886001600160a01b031681525061093f565b815260208082019290925260409081015f20815180830190925280546001600160a01b039081168084526001909201541691909201819052909890975095505050505050565b6103336109a2565b6001600160a01b03811661035a5760405163d92e233d60e01b815260040160405180910390fd5b5f80546001600160a01b038381166001600160a01b0319831681178455604051919092169283917f602846c520af33c31f1eb7f98a8ffb9136828d2e64ca3d318b45f7991d7d9c489190a35050565b6103b16109fd565b6103ba82610aa1565b6103c48282610aa9565b5050565b5f6103d1610b6a565b505f5160206132945f395f51905f5290565b6103eb6109a2565b6103f45f610bb3565b565b7ff0c57e16840df040f15088dc2f81fe391c3923bec73e23a9662efc9c229c6a008054600160401b810460ff16159067ffffffffffffffff165f8115801561043b5750825b90505f8267ffffffffffffffff1660011480156104575750303b155b905081158015610465575080155b156104835760405163f92ee8a960e01b815260040160405180910390fd5b845467ffffffffffffffff1916600117855583156104ad57845460ff60401b1916600160401b1785555b6104b633610c23565b6104be610c34565b831561050457845460ff60401b19168555604051600181527fc7f505b2f371ae2175ee4913f4499e1f2633a7b5936321eed1cdaeb6115181d29060200160405180910390a15b5050505050565b5f805481906001600160a01b031633146105385760405163a2153c5b60e01b815260040160405180910390fd5b8260a001355f0361055c57604051636a43f8d160e01b815260040160405180910390fd5b5f604051806080016040528085602001602081019061057b9190611270565b6001600160a01b0316815260209081019061059890870187611270565b6001600160a01b03168152606086013560208201526040016105c060a0870160808801611270565b6001600160a01b0316905290505f6105d78261093f565b9050610606825f015186606001356040518060400160405280600381526020016210d41560ea1b815250610c3c565b6106166060870160408801611270565b86606001358760a0013560405161062c906111fe565b61063994939291906113d9565b604051809103905ff080158015610652573d5f5f3e3d5ffd5b5060405163449bf36760e11b8152600481018390529094506001600160a01b03851690638937e6ce906024015f604051808303815f87803b158015610695575f5ffd5b505af11580156106a7573d5f5f3e3d5ffd5b50505f54604051634892047360e01b81526001600160a01b0391821660048201529087169250634892047391506024015f604051808303815f87803b1580156106ee575f5ffd5b505af1158015610700573d5f5f3e3d5ffd5b50505050610731825f015186606001356040518060400160405280600381526020016210d4d560ea1b815250610c3c565b6107416060870160408801611270565b86606001358760a00135604051610757906111fe565b61076494939291906113d9565b604051809103905ff08015801561077d573d5f5f3e3d5ffd5b5060405163449bf36760e11b8152600481018390529093506001600160a01b03841690638937e6ce906024015f604051808303815f87803b1580156107c0575f5ffd5b505af11580156107d2573d5f5f3e3d5ffd5b50505f54604051634892047360e01b81526001600160a01b0391821660048201529086169250634892047391506024015f604051808303815f87803b158015610819575f5ffd5b505af115801561082b573d5f5f3e3d5ffd5b50506040805180820182526001600160a01b0380891680835288821660208085018281525f8a81526001808452888220975188549088166001600160a01b03199182161789559251978101805498909716979092169690961790945582855260028152858520805460ff19908116861790915582865295909420805490951690921790935593509091506108c190880188611270565b6001600160a01b03167fd5386d65dc189e6c8b30252752a76d64a76d66070c85eea664af9c428ae4271f60405160405180910390a45050915091565b6109056109a2565b6001600160a01b03811661093357604051631e4fbdf760e01b81525f60048201526024015b60405180910390fd5b61093c81610bb3565b50565b5f81604051602001610985919081516001600160a01b03908116825260208084015182169083015260408084015190830152606092830151169181019190915260800190565b604051602081830303815290604052805190602001209050919050565b336109d47f9016d09d72d40fdae2fd8ceac6b6234c7706214fd39c1cd1e609a0528c199300546001600160a01b031690565b6001600160a01b0316146103f45760405163118cdaa760e01b815233600482015260240161092a565b306001600160a01b037f0000000000000000000000000000000000000000000000000000000000000000161480610a8357507f00000000000000000000000000000000000000000000000000000000000000006001600160a01b0316610a775f5160206132945f395f51905f52546001600160a01b031690565b6001600160a01b031614155b156103f45760405163703e46dd60e11b815260040160405180910390fd5b61093c6109a2565b816001600160a01b03166352d1902d6040518163ffffffff1660e01b8152600401602060405180830381865afa925050508015610b03575060408051601f3d908101601f19168201909252610b0091810190611410565b60015b610b2b57604051634c9c8ce360e01b81526001600160a01b038316600482015260240161092a565b5f5160206132945f395f51905f528114610b5b57604051632a87526960e21b81526004810182905260240161092a565b610b658383610ce6565b505050565b306001600160a01b037f000000000000000000000000000000000000000000000000000000000000000016146103f45760405163703e46dd60e11b815260040160405180910390fd5b7f9016d09d72d40fdae2fd8ceac6b6234c7706214fd39c1cd1e609a0528c19930080546001600160a01b031981166001600160a01b03848116918217845560405192169182907f8be0079c531659141344cd1fd0a4f28419497f9722a3daafe3b4186f6b6457e0905f90a3505050565b610c2b610d3b565b61093c81610d84565b6103f4610d3b565b60605f846001600160a01b03166395d89b416040518163ffffffff1660e01b81526004015f60405180830381865afa158015610c7a573d5f5f3e3d5ffd5b505050506040513d5f823e601f3d908101601f19168201604052610ca19190810190611427565b90505f610cb5610cb086610d8c565b610daa565b9050818185604051602001610ccc939291906114b3565b604051602081830303815290604052925050509392505050565b610cef82610e3a565b6040516001600160a01b038316907fbc7cd75a20ee27fd9adebab32041f755214dbc6bffa90cc0225b39da2e5c2d3b905f90a2805115610d3357610b658282610e9d565b6103c4610f11565b7ff0c57e16840df040f15088dc2f81fe391c3923bec73e23a9662efc9c229c6a0054600160401b900460ff166103f457604051631afcd79f60e31b815260040160405180910390fd5b610905610d3b565b5f610da2610d9d6201518084611501565b610f30565b509392505050565b60605f610db68361109f565b60010190505f8167ffffffffffffffff811115610dd557610dd5611289565b6040519080825280601f01601f191660200182016040528015610dff576020820181803683370190505b5090508181016020015b5f19016f181899199a1a9b1b9c1cb0b131b232b360811b600a86061a8153600a8504945084610e0957509392505050565b806001600160a01b03163b5f03610e6f57604051634c9c8ce360e01b81526001600160a01b038216600482015260240161092a565b5f5160206132945f395f51905f5280546001600160a01b0319166001600160a01b0392909216919091179055565b60605f5f846001600160a01b031684604051610eb99190611514565b5f60405180830381855af49150503d805f8114610ef1576040519150601f19603f3d011682016040523d82523d5f602084013e610ef6565b606091505b5091509150610f06858383611176565b925050505b92915050565b34156103f45760405163b398979f60e01b815260040160405180910390fd5b5f8080838162253d8c610f468362010bd961151f565b610f50919061151f565b90505f62023ab1610f62836004611546565b610f6c9190611575565b90506004610f7d8262023ab1611546565b610f8890600361151f565b610f929190611575565b610f9c90836115a1565b91505f62164b09610fae84600161151f565b610fba90610fa0611546565b610fc49190611575565b90506004610fd4826105b5611546565b610fde9190611575565b610fe890846115a1565b610ff390601f61151f565b92505f61098f611004856050611546565b61100e9190611575565b90505f605061101f8361098f611546565b6110299190611575565b61103390866115a1565b9050611040600b83611575565b945061104d85600c611546565b61105883600261151f565b61106291906115a1565b915084836110716031876115a1565b61107c906064611546565b611086919061151f565b611090919061151f565b9a919950975095505050505050565b5f8072184f03e93ff9f4daa797ed6e38ed64bf6a1f0160401b83106110dd5772184f03e93ff9f4daa797ed6e38ed64bf6a1f0160401b830492506040015b6d04ee2d6d415b85acef81000000008310611109576d04ee2d6d415b85acef8100000000830492506020015b662386f26fc10000831061112757662386f26fc10000830492506010015b6305f5e100831061113f576305f5e100830492506008015b612710831061115357612710830492506004015b60648310611165576064830492506002015b600a8310610f0b5760010192915050565b60608261118b57611186826111d5565b6111ce565b81511580156111a257506001600160a01b0384163b155b156111cb57604051639996b31560e01b81526001600160a01b038516600482015260240161092a565b50805b9392505050565b8051156111e55780518082602001fd5b60405163d6bda27560e01b815260040160405180910390fd5b611ccc806115c883390190565b80356001600160a01b0381168114611221575f5ffd5b919050565b5f5f5f5f60808587031215611239575f5ffd5b6112428561120b565b93506112506020860161120b565b9250604085013591506112656060860161120b565b905092959194509250565b5f60208284031215611280575f5ffd5b6111ce8261120b565b634e487b7160e01b5f52604160045260245ffd5b604051601f8201601f1916810167ffffffffffffffff811182821017156112c6576112c6611289565b604052919050565b5f67ffffffffffffffff8211156112e7576112e7611289565b50601f01601f191660200190565b5f5f60408385031215611306575f5ffd5b61130f8361120b565b9150602083013567ffffffffffffffff81111561132a575f5ffd5b8301601f8101851361133a575f5ffd5b803561134d611348826112ce565b61129d565b818152866020838501011115611361575f5ffd5b816020840160208301375f602083830101528093505050509250929050565b5f81518084528060208401602086015e5f602082860101526020601f19601f83011685010191505092915050565b602081525f6111ce6020830184611380565b5f60c08284031280156113d1575f5ffd5b509092915050565b608081525f6113eb6080830187611380565b6001600160a01b03959095166020830152506040810192909252606090910152919050565b5f60208284031215611420575f5ffd5b5051919050565b5f60208284031215611437575f5ffd5b815167ffffffffffffffff81111561144d575f5ffd5b8201601f8101841361145d575f5ffd5b805161146b611348826112ce565b81815285602083850101111561147f575f5ffd5b8160208401602083015e5f91810160200191909152949350505050565b5f81518060208401855e5f93019283525090919050565b5f6114d06114ca6114c4848861149c565b8661149c565b8461149c565b95945050505050565b634e487b7160e01b5f52601260045260245ffd5b634e487b7160e01b5f52601160045260245ffd5b5f8261150f5761150f6114d9565b500490565b5f6111ce828461149c565b8082018281125f83128015821682158216171561153e5761153e6114ed565b505092915050565b8082025f8212600160ff1b84141615611561576115616114ed565b8181058314821517610f0b57610f0b6114ed565b5f82611583576115836114d9565b600160ff1b82145f198414161561159c5761159c6114ed565b500590565b8181035f8312801583831316838312821617156115c0576115c06114ed565b509291505056fe6101a0604052348015610010575f5ffd5b50604051611ccc380380611ccc83398101604081905261002f916102bd565b8082848680604051806040016040528060018152602001603160f81b815250898a816003908161005f9190610411565b50600461006c8282610411565b5061007c915083905060056101ce565b6101205261008b8160066101ce565b61014052815160208084019190912060e052815190820120610100524660a05261011760e05161010051604080517f8b73c3c69bb8fe3d512ecc4cf759cc79239f7b179b0ffacaa9a75d522b39400f60208201529081019290925260608201524660808201523060a08201525f9060c00160405160208183030381529060405280519060200120905090565b60805250503060c052506001600160a01b03811661014f57604051631e4fbdf760e01b81525f60048201526024015b60405180910390fd5b61015881610200565b50805f036101785760405162d36c8560e81b815260040160405180910390fd5b4281101561019957604051630407b05b60e31b815260040160405180910390fd5b610160524261018052600955600a6101b18582610411565b5050600d80546001600160a01b0319163317905550610523915050565b5f6020835110156101e9576101e283610251565b90506101fa565b816101f48482610411565b5060ff90505b92915050565b600880546001600160a01b038381166001600160a01b0319831681179093556040519116919082907f8be0079c531659141344cd1fd0a4f28419497f9722a3daafe3b4186f6b6457e0905f90a35050565b5f5f829050601f8151111561027b578260405163305a27a960e01b815260040161014691906104cb565b805161028682610500565b179392505050565b634e487b7160e01b5f52604160045260245ffd5b80516001600160a01b03811681146102b8575f5ffd5b919050565b5f5f5f5f608085870312156102d0575f5ffd5b84516001600160401b038111156102e5575f5ffd5b8501601f810187136102f5575f5ffd5b80516001600160401b0381111561030e5761030e61028e565b604051601f8201601f19908116603f011681016001600160401b038111828210171561033c5761033c61028e565b604052818152828201602001891015610353575f5ffd5b8160208401602083015e5f60208383010152809650505050610377602086016102a2565b6040860151606090960151949790965092505050565b600181811c908216806103a157607f821691505b6020821081036103bf57634e487b7160e01b5f52602260045260245ffd5b50919050565b601f82111561040c57805f5260205f20601f840160051c810160208510156103ea5750805b601f840160051c820191505b81811015610409575f81556001016103f6565b50505b505050565b81516001600160401b0381111561042a5761042a61028e565b61043e81610438845461038d565b846103c5565b6020601f821160018114610470575f83156104595750848201515b5f19600385901b1c1916600184901b178455610409565b5f84815260208120601f198516915b8281101561049f578785015182556020948501946001909201910161047f565b50848210156104bc57868401515f19600387901b60f8161c191681555b50505050600190811b01905550565b602081525f82518060208401528060208501604085015e5f604082850101526040601f19601f83011684010191505092915050565b805160208083015191908110156103bf575f1960209190910360031b1b16919050565b60805160a05160c05160e05161010051610120516101405161016051610180516117366105965f395f6103a901525f818161029b015281816104c1015261079b01525f610e8901525f610e5c01525f610d4c01525f610d2401525f610c7f01525f610ca901525f610cd301526117365ff3fe608060405234801561000f575f5ffd5b50600436106101fd575f3560e01c806370a082311161011457806395d89b41116100a9578063d14305b311610079578063d14305b314610461578063d505accf14610474578063dd62ed3e14610487578063e184c9be146104bf578063f2fde38b146104e5575f5ffd5b806395d89b4114610420578063a9059cbb14610428578063b19c7e981461043b578063c45a01551461044e575f5ffd5b80638437eeb6116100e45780638437eeb6146103a757806384b0196e146103cd5780638937e6ce146103e85780638da5cb5b146103fb575f5ffd5b806370a0823114610351578063715018a61461037957806379cc6790146103815780637ecebe0014610394575f5ffd5b80633644e5151161019557806342966c681161016557806342966c68146102fc578063489204731461030f578063491d71d51461032257806369ea1771146103355780636ed71ede14610348575f5ffd5b80633644e515146102d15780633ba0b9a9146102d957806340794c3b146102e157806340c10f19146102e9575f5ffd5b806318160ddd116101d057806318160ddd1461027457806323b872dd146102865780632f13b60c14610299578063313ce567146102c2575f5ffd5b806306fdde03146102015780630902f1ac1461021f578063095ea7b31461023c57806315dacbea1461025f575b5f5ffd5b6102096104f8565b60405161021691906113ac565b60405180910390f35b610227610588565b60408051928352602083019190915201610216565b61024f61024a3660046113e0565b61067e565b6040519015158152602001610216565b61027261026d366004611408565b610697565b005b6002545b604051908152602001610216565b61024f610294366004611450565b6106d4565b7f000000000000000000000000000000000000000000000000000000000000000042101561024f565b60405160128152602001610216565b6102786106f7565b600954610278565b610209610705565b6102726102f73660046113e0565b610791565b61027261030a36600461148a565b6107e7565b61027261031d3660046114a1565b6107f4565b6102726103303660046114ba565b61085d565b61027261034336600461148a565b6108c1565b610278600b5481565b61027861035f3660046114a1565b6001600160a01b03165f9081526020819052604090205490565b6102726108ce565b61027261038f3660046113e0565b6108e1565b6102786103a23660046114a1565b6108f6565b7f0000000000000000000000000000000000000000000000000000000000000000610278565b6103d5610913565b60405161021697969594939291906114f9565b6102726103f636600461148a565b610955565b6008546001600160a01b03165b6040516001600160a01b039091168152602001610216565b61020961097b565b61024f6104363660046113e0565b61098a565b61027261044936600461158f565b610997565b600d54610408906001600160a01b031681565b600c54610408906001600160a01b031681565b6102726104823660046115e0565b610a06565b61027861049536600461164d565b6001600160a01b039182165f90815260016020908152604080832093909416825291909152205490565b7f0000000000000000000000000000000000000000000000000000000000000000610278565b6102726104f33660046114a1565b610b3c565b6060600380546105079061167e565b80601f01602080910402602001604051908101604052809291908181526020018280546105339061167e565b801561057e5780601f106105555761010080835404028352916020019161057e565b820191905f5260205f20905b81548152906001019060200180831161056157829003601f168201915b5050505050905090565b600c54600b5460405163189c002760e21b81526004810191909152600160248201525f9182916001600160a01b0390911690636270009c90604401602060405180830381865afa1580156105de573d5f5f3e3d5ffd5b505050506040513d601f19601f8201168201806040525081019061060291906116b6565b600c54600b5460405163189c002760e21b815260048101919091525f60248201529193506001600160a01b031690636270009c90604401602060405180830381865afa158015610654573d5f5f3e3d5ffd5b505050506040513d601f19601f8201168201806040525081019061067891906116b6565b90509091565b5f3361068b818585610b76565b60019150505b92915050565b61069f610b88565b826001600160a01b0316846001600160a01b0316146106c3576106c3838583610ba0565b6106ce838383610c16565b50505050565b5f336106e1858285610ba0565b6106ec858585610c16565b506001949350505050565b5f610700610c73565b905090565b600a80546107129061167e565b80601f016020809104026020016040519081016040528092919081815260200182805461073e9061167e565b80156107895780601f1061076057610100808354040283529160200191610789565b820191905f5260205f20905b81548152906001019060200180831161076c57829003601f168201915b505050505081565b610799610b88565b7f000000000000000000000000000000000000000000000000000000000000000042106107d957604051630407b05b60e31b815260040160405180910390fd5b6107e38282610d9c565b5050565b6107f13382610dd0565b50565b600d546001600160a01b0316336001600160a01b03161461083b57335b60405163118cdaa760e01b81526001600160a01b0390911660048201526024015b60405180910390fd5b600c80546001600160a01b0319166001600160a01b0392909216919091179055565b610865610b88565b826001600160a01b0316846001600160a01b03167fdcbc1c05240f31ff3ad067ef1ee35ce4997762752e3a095284754544f4c709d784846040516108b3929190918252602082015260400190565b60405180910390a350505050565b6108c9610b88565b600955565b6108d6610b88565b6108df5f610e04565b565b6108ec823383610ba0565b6107e38282610dd0565b6001600160a01b0381165f90815260076020526040812054610691565b5f6060805f5f5f6060610924610e55565b61092c610e82565b604080515f80825260208201909252600f60f81b9b939a50919850469750309650945092509050565b600d546001600160a01b0316336001600160a01b0316146109765733610811565b600b55565b6060600480546105079061167e565b5f3361068b818585610c16565b61099f610b88565b826001600160a01b0316846001600160a01b0316866001600160a01b03167ffbde797d201c681b91056529119e0b02407c7bb96a4a2c75c01fc9667232c8db85856040516109f7929190918252602082015260400190565b60405180910390a45050505050565b83421115610a2a5760405163313c898160e11b815260048101859052602401610832565b5f7f6e71edae12b1b97f4d1f60370fef10105fa2faae0126114a169c64845d6126c9888888610a758c6001600160a01b03165f90815260076020526040902080546001810190915590565b6040805160208101969096526001600160a01b0394851690860152929091166060840152608083015260a082015260c0810186905260e0016040516020818303038152906040528051906020012090505f610acf82610eaf565b90505f610ade82878787610edb565b9050896001600160a01b0316816001600160a01b031614610b25576040516325c0072360e11b81526001600160a01b0380831660048301528b166024820152604401610832565b610b308a8a8a610b76565b50505050505050505050565b610b44610b88565b6001600160a01b038116610b6d57604051631e4fbdf760e01b81525f6004820152602401610832565b6107f181610e04565b610b838383836001610f07565b505050565b6008546001600160a01b031633146108df5733610811565b6001600160a01b038381165f908152600160209081526040808320938616835292905220545f198110156106ce5781811015610c0857604051637dc7a0d960e11b81526001600160a01b03841660048201526024810182905260448101839052606401610832565b6106ce84848484035f610f07565b6001600160a01b038316610c3f57604051634b637e8f60e11b81525f6004820152602401610832565b6001600160a01b038216610c685760405163ec442f0560e01b81525f6004820152602401610832565b610b83838383610fcb565b5f306001600160a01b037f000000000000000000000000000000000000000000000000000000000000000016148015610ccb57507f000000000000000000000000000000000000000000000000000000000000000046145b15610cf557507f000000000000000000000000000000000000000000000000000000000000000090565b610700604080517f8b73c3c69bb8fe3d512ecc4cf759cc79239f7b179b0ffacaa9a75d522b39400f60208201527f0000000000000000000000000000000000000000000000000000000000000000918101919091527f000000000000000000000000000000000000000000000000000000000000000060608201524660808201523060a08201525f9060c00160405160208183030381529060405280519060200120905090565b6001600160a01b038216610dc55760405163ec442f0560e01b81525f6004820152602401610832565b6107e35f8383610fcb565b6001600160a01b038216610df957604051634b637e8f60e11b81525f6004820152602401610832565b6107e3825f83610fcb565b600880546001600160a01b038381166001600160a01b0319831681179093556040519116919082907f8be0079c531659141344cd1fd0a4f28419497f9722a3daafe3b4186f6b6457e0905f90a35050565b60606107007f000000000000000000000000000000000000000000000000000000000000000060056110f1565b60606107007f000000000000000000000000000000000000000000000000000000000000000060066110f1565b5f610691610ebb610c73565b8360405161190160f01b8152600281019290925260228201526042902090565b5f5f5f5f610eeb8888888861119a565b925092509250610efb8282611262565b50909695505050505050565b6001600160a01b038416610f305760405163e602df0560e01b81525f6004820152602401610832565b6001600160a01b038316610f5957604051634a1406b160e11b81525f6004820152602401610832565b6001600160a01b038085165f90815260016020908152604080832093871683529290522082905580156106ce57826001600160a01b0316846001600160a01b03167f8c5be1e5ebec7d5bd14f71427d1e84f3dd0314c0f7b2291e5b200ac8c7c3b925846040516108b391815260200190565b6001600160a01b038316610ff5578060025f828254610fea91906116cd565b909155506110659050565b6001600160a01b0383165f90815260208190526040902054818110156110475760405163391434e360e21b81526001600160a01b03851660048201526024810182905260448101839052606401610832565b6001600160a01b0384165f9081526020819052604090209082900390555b6001600160a01b0382166110815760028054829003905561109f565b6001600160a01b0382165f9081526020819052604090208054820190555b816001600160a01b0316836001600160a01b03167fddf252ad1be2c89b69c2b068fc378daa952ba7f163c4a11628f55a4df523b3ef836040516110e491815260200190565b60405180910390a3505050565b606060ff831461110b576111048361131a565b9050610691565b8180546111179061167e565b80601f01602080910402602001604051908101604052809291908181526020018280546111439061167e565b801561118e5780601f106111655761010080835404028352916020019161118e565b820191905f5260205f20905b81548152906001019060200180831161117157829003601f168201915b50505050509050610691565b5f80807f7fffffffffffffffffffffffffffffff5d576e7357a4501ddfe92f46681b20a08411156111d357505f91506003905082611258565b604080515f808252602082018084528a905260ff891692820192909252606081018790526080810186905260019060a0016020604051602081039080840390855afa158015611224573d5f5f3e3d5ffd5b5050604051601f1901519150506001600160a01b03811661124f57505f925060019150829050611258565b92505f91508190505b9450945094915050565b5f826003811115611275576112756116ec565b0361127e575050565b6001826003811115611292576112926116ec565b036112b05760405163f645eedf60e01b815260040160405180910390fd5b60028260038111156112c4576112c46116ec565b036112e55760405163fce698f760e01b815260048101829052602401610832565b60038260038111156112f9576112f96116ec565b036107e3576040516335e2f38360e21b815260048101829052602401610832565b60605f61132683611357565b6040805160208082528183019092529192505f91906020820181803683375050509182525060208101929092525090565b5f60ff8216601f81111561069157604051632cd44ac360e21b815260040160405180910390fd5b5f81518084528060208401602086015e5f602082860101526020601f19601f83011685010191505092915050565b602081525f6113be602083018461137e565b9392505050565b80356001600160a01b03811681146113db575f5ffd5b919050565b5f5f604083850312156113f1575f5ffd5b6113fa836113c5565b946020939093013593505050565b5f5f5f5f6080858703121561141b575f5ffd5b611424856113c5565b9350611432602086016113c5565b9250611440604086016113c5565b9396929550929360600135925050565b5f5f5f60608486031215611462575f5ffd5b61146b846113c5565b9250611479602085016113c5565b929592945050506040919091013590565b5f6020828403121561149a575f5ffd5b5035919050565b5f602082840312156114b1575f5ffd5b6113be826113c5565b5f5f5f5f608085870312156114cd575f5ffd5b6114d6856113c5565b93506114e4602086016113c5565b93969395505050506040820135916060013590565b60ff60f81b8816815260e060208201525f61151760e083018961137e565b8281036040840152611529818961137e565b606084018890526001600160a01b038716608085015260a0840186905283810360c0850152845180825260208087019350909101905f5b8181101561157e578351835260209384019390920191600101611560565b50909b9a5050505050505050505050565b5f5f5f5f5f60a086880312156115a3575f5ffd5b6115ac866113c5565b94506115ba602087016113c5565b93506115c8604087016113c5565b94979396509394606081013594506080013592915050565b5f5f5f5f5f5f5f60e0888a0312156115f6575f5ffd5b6115ff886113c5565b965061160d602089016113c5565b95506040880135945060608801359350608088013560ff81168114611630575f5ffd5b9699959850939692959460a0840135945060c09093013592915050565b5f5f6040838503121561165e575f5ffd5b611667836113c5565b9150611675602084016113c5565b90509250929050565b600181811c9082168061169257607f821691505b6020821081036116b057634e487b7160e01b5f52602260045260245ffd5b50919050565b5f602082840312156116c6575f5ffd5b5051919050565b8082018082111561069157634e487b7160e01b5f52601160045260245ffd5b634e487b7160e01b5f52602160045260245ffdfea26469706673582212200fa0554661eaee8ad9ed2d921de6a4debe9d4b009d97529136946ccc2e1b69d364736f6c634300081e0033360894a13ba1a3210667c828492db98dca3e2076cc3735a920a3ca505d382bbca264697066735822122059bc1a6ea9769d6764aa2e49eb34132d5ac61a3889c1cdf6e9690922a839929e64736f6c634300081e0033","linkReferences":{}},"methodIdentifiers":{"UPGRADE_INTERFACE_VERSION()":"ad3cb1cc","corkPool()":"d14305b3","deploySwapShares((address,address,address,uint256,address,uint256))":"ec8fe9f3","getDeployedSwapShares(address,address,uint256,address)":"20d77a5c","initialize()":"8129fc1c","isDeployed(address)":"90184b02","owner()":"8da5cb5b","proxiableUUID()":"52d1902d","renounceOwnership()":"715018a6","setCorkPool(address)":"48920473","transferOwnership(address)":"f2fde38b","upgradeToAndCall(address,bytes)":"4f1ef286"},"storageLayout":{"storage":[{"astId":3701,"contract":"contracts/core/assets/SharesFactory.sol:SharesFactory","label":"corkPool","offset":0,"slot":"0","type":"t_address"},{"astId":3712,"contract":"contracts/core/assets/SharesFactory.sol:SharesFactory","label":"swapShares","offset":0,"slot":"1","type":"t_mapping(t_userDefinedValueType(MarketId)5754,t_struct(SwapPair)3706_storage)"},{"astId":3716,"contract":"contracts/core/assets/SharesFactory.sol:SharesFactory","label":"deployed","offset":0,"slot":"2","type":"t_mapping(t_address,t_bool)"},{"astId":3721,"contract":"contracts/core/assets/SharesFactory.sol:SharesFactory","label":"__gap","offset":0,"slot":"3","type":"t_array(t_uint256)49_storage"}],"types":{"t_address":{"encoding":"inplace","label":"address","numberOfBytes":"20"},"t_array(t_uint256)49_storage":{"encoding":"inplace","label":"uint256[49]","numberOfBytes":"1568","base":"t_uint256"},"t_bool":{"encoding":"inplace","label":"bool","numberOfBytes":"1"},"t_mapping(t_address,t_bool)":{"encoding":"mapping","key":"t_address","label":"mapping(address => bool)","numberOfBytes":"32","value":"t_bool"},"t_mapping(t_userDefinedValueType(MarketId)5754,t_struct(SwapPair)3706_storage)":{"encoding":"mapping","key":"t_userDefinedValueType(MarketId)5754","label":"mapping(MarketId => struct SharesFactory.SwapPair)","numberOfBytes":"32","value":"t_struct(SwapPair)3706_storage"},"t_struct(SwapPair)3706_storage":{"encoding":"inplace","label":"struct SharesFactory.SwapPair","numberOfBytes":"64","members":[{"astId":3703,"contract":"contracts/core/assets/SharesFactory.sol:SharesFactory","label":"principalToken","offset":0,"slot":"0","type":"t_address"},{"astId":3705,"contract":"contracts/core/assets/SharesFactory.sol:SharesFactory","label":"swapToken","offset":0,"slot":"1","type":"t_address"}]},"t_uint256":{"encoding":"inplace","label":"uint256","numberOfBytes":"32"},"t_userDefinedValueType(MarketId)5754":{"encoding":"inplace","label":"MarketId","numberOfBytes":"32"}}},"id":6}